:020000040000FA
:100000000A128A11FB2FFF1B0D2883137F188317F9
:100010000008840A0319FF0A080000308A00040857
:10002000840A82070034483445344C344C344F340D
:0200300000349A
:100DF6008312031307172730F100F530F000F00BCC
:100E0600022FF10B022F8312031307130800F200BF
:100E16000A128A1173270A128A117208831203139F
:100E26008600071287120A128A11FB260A128A11F5
:100E36000800F2000A128A1173270A128A11720830
:100E4600831203138600071687120A128A11FB26DD
:100E56000A128A11080038300A128A110A270A1261
:100E66008A110C300A128A110A270A128A110130D5
:100E76000A128A110A270A128A1106300A128A11E0
:100E86000A270A128A1180300A128A110A270A12C0
:100E96008A110800622F7408FF00730884000A1282
:100EA6008A1103200A128A110A128A111C270A12B1
:100EB6008A110130F3070318F40A0030F4077408A6
:100EC60083120313FF00730884000A128A11032099
:100ED6000A128A11003A031D712F722F4E2F080035
:100EE600FF308312031386008030F00070088605F9
:100EF6000712871607132730F100F530F000F00BC4
:100F0600822FF10B822F83120313071780300606F8
:100F1600031D8E2F8F2F9B2F07132730F100F530DF
:100F2600F000F00B942FF10B942F83120313071785
:100F360008000930831603178800890109308316D3
:100F46000313850086018701880189018312031333
:100F5600850186018701880189011F179F131F15C7
:100F66009F111F169F161F14831603139F171F1218
:100F76009F120F088F3960388F008F110F118F1055
:100F86000F140A128A112E270A128A110130F30051
:100F96008030F4000A128A114D270A128A11C030D5
:100FA6000A128A110A270A128A117808F500F60130
:100FB6007508F3007608F4000A128A114D270A1202
:100FC6008A111C300A128A110A270A128A11023063
:100FD600F7004530F600A930F500F50BF02FF60BBB
:100FE600F02FF70BF02FF72FE42F0A128A110028A3
:0A0FF600F80183010A128A119C2FF2
:04400E00D4E0FFFFFC
:00000001FF
