:020000040000FA
:060000000A128A11EA2F2A
:10000C00F100F0013A30710203180D280E28162861
:10001C0030307102031C132814281628F001F00A42
:10002C00700C08008312031355088039DA005A0843
:10003C00E2005508DA005A07DB005B08E400D41F25
:10004C00282829282A286414640803192E282F2804
:10005C003F28640A031D332834283C280030D5007F
:10006C000030D4000030D3000030D200D417D501BA
:10007C0047280030D5000030D4000030D3000030C9
:10008C00D20059088039DA005A08E3006308620686
:10009C00031951285228532862175908DA005A07B5
:1000AC00DB005B08E300D81F5C285D285E28631426
:1000BC0063080319622863287328630A031D6728E1
:1000CC00682870280030D9000030D8000030D700E4
:1000DC000030D600D817D9017B280030D900003069
:1000EC00D8000030D7000030D60064086302031833
:1000FC0080288128C528621F84288528892880307B
:10010C00DA005A08E2066408DA005A08E5006308C7
:10011C00DA005A08E4006508DA005A08E3005208CD
:10012C00DA005A08E5005608DA005A08D2006508C9
:10013C00DA005A08D6005308DA005A08E5005708C6
:10014C00DA005A08D3006508DA005A08D7005408B8
:10015C00DA005A08E5005808DA005A08D400650895
:10016C00DA005A08D8005508DA005A08E500590890
:10017C00DA005A08D5006508DA005A08D900E501FA
:10018C006308DA00DB015B08DD0064085A02DC005E
:10019C00031CDD035D08803AFF0080307F02031DE5
:1001AC00D9281A305C02031CDC28DD281A2983129A
:1001BC0003135508540453045204031DE628E8287D
:1001CC000130E9280030DA005A08E5000030D5008B
:1001DC000030D4000030D3000030D2006308DA00C5
:1001EC005A08E4002229651CFC28FD28062965080C
:1001FC00DA0003105A0C0138DB005B08E500082913
:10020C000310E50C521C0B290C290D29E5170130A4
:10021C00DA00550DD50CD40CD30CD20CDA0B0F29FB
:10022C000130DA005A08E4078312031363086402EE
:10023C00031C21292229F928621B25292629712929
:10024C006408031D2A292B2934290030D5000030DD
:10025C00D4000030D3000030D2009F2A5608D207B9
:10026C00570803110318013E03193D29D3075808F9
:10027C0003110318013E03194429D407590803112B
:10028C000318013E03194B29D507551C4E294F293C
:10029C00252A651C522953295C296508DA000310AC
:1002AC005A0C0138DB005B08E5005E290310E50CF5
:1002BC00521C612962296329E5170130DA00550DBA
:1002CC00D50CD40CD30CD20CDA0B65290130DA0026
:1002DC005A08E407252A5508803AFF005908803A45
:1002EC007F02031D832958085402031D83295708D4
:1002FC005302031D832956085202031886298729A5
:10030C00DF29FF30DA00FF30DB00FF30DC00FF308C
:10031C00DD005608DE005708DF005808E0005908D9
:10032C00E1005208DE025308031C530F9E299F293B
:10033C00DF025408031C540FA429A529E002550818
:10034C00031C550FAA29AB29E1025E08DA075F08E6
:10035C0003185F0FB229B329DB0760080318600F7D
:10036C00B829B929DC0761080318610ADD075D08A3
:10037C00D5005C08D4005B08D3005A08D20080304A
:10038C00DA005A08E206E509E50A6508031DCF29DB
:10039C00D029ED290130D207003003180130D307E2
:1003AC00003003180130D407003003180130D50792
:1003BC00ED295608D2025708031C570FD3025808D0
:1003CC00031C580FD4025908031C590FD5025508A9
:1003DC00540453045204031DF429F529212A6508F9
:1003EC00031DF929FA29212A0030D5000030D40048
:1003FC000030D3000030D2009F2A0130DA00031005
:10040C00D20DD30DD40DD50DDA0B052AE51F0F2A0D
:10041C00102A112A5214651C142A152A182A03149E
:10042C00E50D1A2A0310E50D640803191E2A1F2A6C
:10043C00212A0130E402D41F242A252A032AE301AD
:10044C00E51F292A2A2A382A65087F3903192F2AF9
:10045C00302A332AE301E30A382A521C362A372A77
:10046C00382A302A630803193C2A3D2A712A0130A4
:10047C00D207003003180130D307003003180130C5
:10048C00D407003003180130D507551C4E2A4F2ACB
:10049C00712A5208DA005308DB005408DC005508B6
:1004AC00DD000130DE005D0DDD0CDC0CDB0CDA0C4C
:1004BC00DE0B592A5D08D5005C08D4005B08D3001C
:1004CC005A08D200640A03196C2A6D2A712A013069
:1004DC00DA005A08E407640A0319752A762A7B2A7B
:1004EC006408031D7A2A7B2A892A0030D500003043
:1004FC00D4000030D3000030D2006408031D872ADA
:10050C00882A892AE201641C8C2A8D2A8F2AD41706
:10051C00932A7F30DA005A08D4056408DA000310F5
:10052C005A0CDB005B08D500E21F9D2A9E2A9F2AED
:10053C00D5170800831603134408F3004308F20090
:10054C004208F1004108F0000030F7000030F600DE
:10055C000030F5000030F4000A168A155F230A12E9
:10056C008A110318BA2ABB2A632B83160313440877
:10057C0083120313D400831603134308831203134B
:10058C00D30083160313420883120313D20083167D
:10059C000313410883120313D1000A168A11C720D2
:1005AC000A128A118312031354085304520451047F
:1005BC00031DE12AE22A632B831603133C08803ABD
:1005CC00FF0080307F02031DED2A02303B02031C2A
:1005DC00F02AF12A632B831603133A08F300390827
:1005EC00F2003808F1003708F0004030F70089308D
:1005FC00F6007030F5005F30F4000A168A152925D4
:10060C000A128A1103180B2B0C2B152BF73083169F
:10061C000313BB070318BC0AFF30BC071D2BF830B3
:10062C0083160313BB070318BC0AFF30BC073B0837
:10063C000A128A1540210A128A11831203134108E7
:10064C0083160313BA008312031340088316031393
:10065C00B900831203133F0883160313B8008312E7
:10066C0003133E0883160313B7004408F300430832
:10067C00F2004208F1004108F0003A08F70039088E
:10068C00F6003808F5003708F4000A168A154227D8
:10069C000A128A11730883160313B6007208B50088
:1006AC007108B4007008B3000030C4000030C300FF
:1006BC000030C2000030C100E72B8316031344083E
:1006CC0083120313D40083160313430883120313FA
:1006DC00D30083160313420883120313D20083162C
:1006EC000313410883120313D1000A168A11C72081
:1006FC000A128A1183120313540883160313B600CB
:10070C0083120313530883160313B50083120313C8
:10071C00520883160313B400831203135108831673
:10072C000313B3003608F3003508F2003408F10067
:10073C003308F00000300A168A15CB250A128A11EC
:10074C00730883120313E9007208E8007108E700CC
:10075C007008E60083160313440883120313ED009C
:10076C0083160313430883120313EC00831603133D
:10077C00420883120313EB00831603134108831200
:10078C000313EA000A168A15E6210A128A1183124B
:10079C000313690883160313C40083120313680838
:1007AC0083160313C3008312031367088316031302
:1007BC00C20083120313660883160313C100BB0126
:1007CC00BC01C801C80A4808A90001300310A90DD2
:1007DC00FF3E031DEC2B0310290D693E84000A1605
:1007EC008A110A200A128A11AA000A168A110A20F2
:1007FC000A128A11AB000A168A110A200A128A11EF
:10080C00AC000A168A110A200A128A11AD002D08B2
:10081C003602031D1B2C2C083502031D1B2C2B0828
:10082C003402031D1B2C2A08330203181E2C1F2C08
:10083C00202C2A2C0130A9002908C8070A304806A8
:10084C00031D292C2A2CE92B48084507A90046082A
:10085C000318460AAA003B082907AB003C080318FA
:10086C003C0A2A07AC002B08BF022C08031CC0034F
:10087C00C002450846040319442C452C4B2CFF3070
:10088C00BF070318C00AFF30C00703303D05A9009D
:10089C0000303E05AA0029082A040319562C572CAF
:1008AC005D2CFF30BF070318C00AFF30C0073D1D89
:1008BC00602C612CAD2C03303D05A90000303E05A9
:1008CC00AA0029082A0403196C2C6D2C8C2C2D30B1
:1008DC00A900470884002908831380000130A9006F
:1008EC002908C7078C2C303083160313A90047083E
:1008FC0084002908831380000130A9002908C70748
:10090C00FF30BF070318C00AFF30C0074008803A09
:10091C00FF0080307F02031D952C01303F0203182D
:10092C00982C992C792C3A2D203083160313A9007E
:10093C00470884002908831380000130A900290886
:10094C00C707FF30BF070318C00AFF30C0074008B5
:10095C00803AFF0080307F02031DB62C01303F022D
:10096C000318B92CBA2C9A2C0330831603133D05AB
:10097C00A90000303E05AA0029082A040319C72C37
:10098C00C82C3A2D2D30A900470884002908831360
:10099C0080000130A9002908C7073A2D4808A90092
:1009AC0001300310A90DFF3E031DD72C0310290D98
:1009BC00693E84000A168A110A200A128A11F00074
:1009CC000A168A110A200A128A11F1000A168A11D3
:1009DC000A200A128A11F2000A168A110A200A1237
:1009EC008A11F3003608F7003508F6003408F500D4
:1009FC003308F4000A168A155A240A128A1173084D
:100A0C0083160313BA007208B9007108B800700895
:100A1C00B7000030F3000030F2000030F1000A3073
:100A2C00F0003A08F7003908F6003808F5003708E6
:100A3C00F4000A168A15AD230A128A11730883165C
:100A4C000313BA007208B9007108B8007008B70037
:100A5C003708303EA900470884002908831380001A
:100A6C000130A9002908C707013083160313C802F7
:100A7C00480A031D422D432DD42C572D303083169C
:100A8C000313A90047088400290883138000013050
:100A9C00A9002908C707FF30BB070318BC0AFF30A1
:100AAC00BC073C08803AFF0080307F02031D602D9C
:100ABC0001303B020318632D642D442D8316031360
:100ACC004608803AFF0080307F02031D6F2D0930ED
:100ADC004502031C722D732D7A2D083083160313D7
:100AEC00A9002908C800802D831603134508A90006
:100AFC002908C8004808A900AA012908C5022A0823
:100B0C00031CC603C602480803198D2D8E2D992D82
:100B1C002E30A90047088400290883138000013077
:100B2C00A9002908C70748080A128A1540210A1289
:100B3C008A1183120313410883160313B100831225
:100B4C000313400883160313B000831203133F08EA
:100B5C0083160313AF00831203133E08831603138B
:100B6C00AE00310883120313AB0083160313300855
:100B7C0083120313AA00831603132F088312031383
:100B8C00A900831603132E0883120313A8008316DF
:100B9C000313440883120313A7008316031343089B
:100BAC0083120313A6008316031342088312031344
:100BBC00A50083160313410883120313A4000A1221
:100BCC008A159F240A128A11831203132708D40052
:100BDC002608D3002508D2002408D1000A168A1151
:100BEC00C7200A128A1183120313540883160313A5
:100BFC00B60083120313530883160313B500831234
:100C0C000313520883160313B40083120313510801
:100C1C0083160313B300B32E4808A9000130031048
:100C2C00A90DFF3E031D152E0310290D693E8400EE
:100C3C000A168A110A200A128A11F0000A168A1161
:100C4C000A200A128A11F1000A168A110A200A12C5
:100C5C008A11F2000A168A110A200A128A11F3006C
:100C6C003608F7003508F6003408F5003308F400B0
:100C7C000A168A155A240A128A117308831603134A
:100C8C00BA007208B9007108B8007008B7000030DB
:100C9C00F3000030F2000030F1000A30F0003A08A6
:100CAC00F7003908F6003808F5003708F4000A1682
:100CBC008A15AD230A128A11730883160313BA001E
:100CCC007208B9007108B8007008B7003708303ED8
:100CDC00A900470884002908831380000130A9006B
:100CEC002908C7074808A90001300310A90DFF3EC9
:100CFC00031D7B2E0310290D693E84000A168A11F0
:100D0C000A200A128A11F0000A168A110A200A1205
:100D1C008A11F1000A168A110A200A128A11F200AD
:100D2C000A168A110A200A128A11F3003608F700F3
:100D3C003508F6003408F5003308F4000A168A1555
:100D4C00AD230A128A11730883160313B6007208B6
:100D5C00B5007108B4007008B3000130C802480A2D
:100D6C00031DB92EBA2E122ECC2E3030A9004708F6
:100D7C0084002908831380000130A9002908C707C3
:100D8C00FF30C5070318C60AFF30C60745084604DE
:100D9C00031DD12ED22EBB2ED12F45084604031D88
:100DAC00D82ED92EE72E3608350434043304031D0F
:100DBC00E02EE12EE72E0130C5070318C60A0030DD
:100DCC00C6074608803A803C031DEE2E45084802B3
:100DDC000318F12EF22EF92E831603134508A900E1
:100DEC002908C800112F831603134608803AA9005E
:100DFC0080302902031D042F480845020318072FD1
:100E0C00082F112F831603134808A900AA012908DB
:100E1C00C5002A08C600831603133F0840040319B3
:100E2C00182F192F2B2F03303D05A90000303E053C
:100E3C00AA0029082A040319242F252F2B2FFF3051
:100E4C00BF070318C00AFF30C0073E1F2E2F2F2FDD
:100E5C004A2F4608803AA9004008803A2902031D0F
:100E6C00392F3F08450203183C2F3D2F462F831680
:100E7C0003134508BF024608031CC003C0024A2FD7
:100E8C0083160313BF01C0014008803A803C031D48
:100E9C00512F3F0848020318542F552F612F8316EA
:100EAC0003134808A900AA012908BF022A08031C39
:100EBC00C003C002652F83160313BF01C0013D1D83
:100ECC00682F692F9E2F03303D05A90000303E0589
:100EDC00AA0029082A040319742F752F802F2D308E
:100EEC00A900470884002908831380000130A90059
:100EFC002908C7073F0840040319852F862FD12FD7
:100F0C003030A90047088400290883138000013081
:100F1C00A9002908C707FF30BF070318C00AFF3014
:100F2C00C0073F084004031D9C2F9D2F862FD12FF7
:100F3C003F0840040319A32FA42FBB2F2030A90076
:100F4C00470884002908831380000130A900290870
:100F5C00C707FF30BF070318C00AFF30C0073F08A0
:100F6C004004031DBA2FBB2FA42F03303D05A9004D
:100F7C0000303E05AA0029082A040319C62FC72FE2
:100F8C00D12F2D30A9004708840029088313800035
:100F9C000A168A11422D0130A007FF302007840069
:100FAC000A168A110A200A128A11A9002908C800F7
:100FBC004808031DE22FE52F0A168A11352D470824
:100FCC0084008313800108008313CB308400E73046
:100FDC000A168A11BF200A128A11831790308400D6
:100FEC00A0300A168A11BF200A128A1183010A1630
:100FFC008A15DF2AF2000A168A157C220A128A1533
:10100C007208831203138600071687120A168A15B4
:10101C00A6210A128A150800831203131F179F13A7
:10102C001F14831603139F131F129F129130F3008A
:10103C008030F4000A168A152F220A128A15C7303E
:10104C0083120313EE002A28EE0B29282D28831275
:10105C0003131F119F111F129F121F149F140C13A7
:10106C001E08EE00EF016E0883160313D5008312E1
:10107C0003136F0883160313D60043308312031334
:10108C00C1007F30C0000030BF000030BE004030D7
:10109C00A700A030A6000030A5000030A4008316E5
:1010AC0003135508F0005608F1000030F11BFF3017
:1010BC00F200F30001300A168A15CB250A128A15A4
:1010CC00730883120313AB007208AA007108A900FD
:1010DC007008A8000A128A159F240A128A15831216
:1010EC0003132708C5002608C4002508C3002408DC
:1010FC00C2000A168A1143210A128A15831203139D
:10110C00410883160313D20083120313400883167D
:10111C000313D100831203133F0883160313D0006B
:10112C00831203133E0883160313CF00C7308312B8
:10113C000313EE00EE0BA028831203131F159F154B
:10114C001F129F121F149F140C131E08EE00EF01A8
:10115C006E0883160313D300831203136F088316D0
:10116C000313D400433083120313C1007F30C0003B
:10117C000030BF000030BE004030A700A030A600F9
:10118C000030A5000030A400831603135308F000B0
:10119C005408F1000030F11BFF30F200F300013075
:1011AC000A168A15CB250A128A15730883120313A3
:1011BC00AB007208AA007108A9007008A8000A12F6
:1011CC008A159F240A128A15831203132708C50057
:1011DC002608C4002508C3002408C2000A168A1178
:1011EC0043210A128A158312031341088316031331
:1011FC00CE0083120313400883160313CD00831211
:10120C0003133F0883160313CC00831203133E0809
:10121C0083160313CB00C0300A168A15B5210A12A7
:10122C008A15A23083120313EE006E088316031383
:10123C00A0005208A4005108A3005008A2004F08B7
:10124C00A1004E08A8004D08A7004C08A6004B08AA
:10125C00A500D7300A168A112B250A128A15D73009
:10126C00F3000030F4000A168A152F220A128A1590
:10127C002528080083120313D000D01F46294729C4
:10128C00F42AD009D00A5008803A123E031C4F2988
:10129C005029382A0A30F7000030F8005008F200C4
:1012AC00F301F21BF3036430F0000030F1000A1676
:1012BC008A1501240A128A157108FA007008F900BF
:1012CC000A168A15C0240A128A157708831203138A
:1012DC00C20001300310C20DFF3E031D7029031024
:1012EC00420D593E84000A168A110A200A128A15E8
:1012FC00C3000A168A110A200A128A15C4000A169B
:10130C008A110A200A128A15C5000A168A110A20A7
:10131C000A128A15C6004608A7004508A60044080C
:10132C00A5004308A4006430F7000030F800500812
:10133C00F900FA01F91BFA030A168A15C0240A12DD
:10134C008A15770883120313C70001300310C70DE9
:10135C00FF3E031DAC290310470D7D3E84000A1689
:10136C008A110A200A128A15C8000A168A110A2044
:10137C000A128A15C9000A168A110A200A128A153D
:10138C00CA000A168A110A200A128A15CB004B08C9
:10139C00AB004A08AA004908A9004808A8000A128C
:1013AC008A159F240A128A15831203132708CF006B
:1013BC002608CE002508CD002408CC000A30F00009
:1013CC000030F1005008F200F301F21BF3030A168F
:1013DC008A1501240A128A15700883120313C2009D
:1013EC0001300310C20DFF3E031DF7290310420DFF
:1013FC00353E84000A168A110A200A128A15C30087
:10140C000A168A110A200A128A15C4000A168A11B1
:10141C000A200A128A15C5000A168A110A200A1215
:10142C008A15C6004608A7004508A6004408A50072
:10143C004308A4004F08AB004E08AA004D08A900B1
:10144C004C08A8000A128A159F240A128A158312C6
:10145C0003132708C1002608C0002508BF00240874
:10146C00BE009E2C5008803A753E031C3E2A3F2A33
:10147C00C72A0A30F0000030F1005008F200F301E6
:10148C00F21BF3030A168A1501240A128A15700836
:10149C0083120313C20001300310C20DFF3E031D63
:1014AC00522A0310420D353E84000A168A110A2076
:1014BC000A128A15C3000A168A110A200A128A1502
:1014CC00C4000A168A110A200A128A15C5000A16C7
:1014DC008A110A200A128A15C6004608A700450878
:1014EC00A6004408A5004308A4000A30F700003009
:1014FC00F8005008F900FA01F91BFA030A168A15CC
:10150C00C0240A128A15770883120313C70001300E
:10151C000310C70DFF3E031D8E2A0310470D593EC5
:10152C0084000A168A110A200A128A15C8000A16A3
:10153C008A110A200A128A15C9000A168A110A2071
:10154C000A128A15CA000A168A110A200A128A156A
:10155C00CB004B08AB004A08AA004908A900480870
:10156C00A8000A128A159F240A128A1583120313E3
:10157C002708C1002608C0002508BF002408BE00AB
:10158C009E2C5008C20001300310C20DFF3E031DFB
:10159C00CA2A0310420D353E84000A168A110A200D
:1015AC000A128A15C3000A168A110A200A128A1511
:1015BC00C4000A168A110A200A128A15C5000A16D6
:1015CC008A110A200A128A15C6004608C10045086D
:1015DC00C0004408BF004308BE009E2C5008803A4F
:1015EC00123E031CFA2AFB2AE32B0A30F7000030C8
:1015FC00F8005008F200F301F21BF3036430F00022
:10160C000030F1000A168A1501240A128A15710895
:10161C00FA007008F9000A168A15C0240A128A15F5
:10162C00770883120313C20001300310C20DFF3E72
:10163C00031D1B2B0310420D253E84000A168A1134
:10164C000A200A128A15C3000A168A110A200A12E5
:10165C008A15C4000A168A110A200A128A15C500B6
:10166C000A168A110A200A128A15C6004608A70013
:10167C004508A6004408A5004308A4006430F70000
:10168C000030F8005008F900FA01F91BFA030A16A9
:10169C008A15C0240A128A15770883120313C7000F
:1016AC0001300310C70DFF3E031D572B0310470DD0
:1016BC00493E84000A168A110A200A128A15C800AB
:1016CC000A168A110A200A128A15C9000A168A11EA
:1016DC000A200A128A15CA000A168A110A200A124E
:1016EC008A15CB004B08AB004A08AA004908A90090
:1016FC004808A8000A128A159F240A128A15831218
:10170C0003132708CF002608CE002508CD00240897
:10171C00CC000A30F0000030F1005008F200F30168
:10172C00F21BF3030A168A1501240A128A15700893
:10173C0083120313C20001300310C20DFF3E031DC0
:10174C00A22B0310420D013E84000A168A110A20B6
:10175C000A128A15C3000A168A110A200A128A155F
:10176C00C4000A168A110A200A128A15C5000A1624
:10177C008A110A200A128A15C6004608A7004508D5
:10178C00A6004408A5004308A4004F08AB004E086F
:10179C00AA004D08A9004C08A8000A128A159F241B
:1017AC000A128A15831203132708C1002608C000E9
:1017BC002508BF002408BE009E2C5008803A753EB8
:1017CC00031CE92BEA2B722C0A30F0000030F100DC
:1017DC005008F200F301F21BF3030A168A150124D8
:1017EC000A128A15700883120313C2000130031009
:1017FC00C20DFF3E031DFD2B0310420D013E840064
:10180C000A168A110A200A128A15C3000A168A11AE
:10181C000A200A128A15C4000A168A110A200A1212
:10182C008A15C5000A168A110A200A128A15C600E2
:10183C004608A7004508A6004408A5004308A400D4
:10184C000A30F7000030F8005008F900FA01F91BD3
:10185C00FA030A168A15C0240A128A15770883120D
:10186C000313C70001300310C70DFF3E031D392CB5
:10187C000310470D253E84000A168A110A200A120D
:10188C008A15C8000A168A110A200A128A15C9007C
:10189C000A168A110A200A128A15CA000A168A1117
:1018AC000A200A128A15CB004B08AB004A08AA0082
:1018BC004908A9004808A8000A128A159F240A1290
:1018CC008A15831203132708C1002608C0002508B7
:1018DC00BF002408BE009E2C5008C200013003102B
:1018EC00C20DFF3E031D752C0310420D013E8400FA
:1018FC000A168A110A200A128A15C3000A168A11BE
:10190C000A200A128A15C4000A168A110A200A1221
:10191C008A15C5000A168A110A200A128A15C600F1
:10192C004608C1004508C0004408BF004308BE007B
:10193C0008008312031327088039AC002C08B1006F
:10194C002708AC002C07AD002D08B700A61FAF2C44
:10195C00B02CB12C371437080319B52CB62CC52C68
:10196C00370A031DBA2CBB2CC32C0030A700003047
:10197C00A6000030A5000030A400A617CD2C003026
:10198C00A7000030A6000030A5000030A4002B08F2
:10199C008039AC002C08B1062B08AC002C07AD002C
:1019AC002D08B600AA1FDB2CDC2CDD2C36143608D7
:1019BC000319E12CE22CF12C360A031DE62CE72C42
:1019CC00EF2C0030AB000030AA000030A900003032
:1019DC00A800AA17F92C0030AB000030AA00003088
:1019EC00A9000030A80036080319FD2CFE2C032D8D
:1019FC003708031D022D032D0C2D0030A7000030DD
:101A0C00A6000030A5000030A400FF2F2408AC0075
:101A1C002C08F0002A080A168A1555220A128A1573
:101A2C00710883120313BD007008BC003C08AC00A5
:101A3C00AD01AE01AF012F08B5002E08B4002D0882
:101A4C00B3002C08B2003D08AC00AD01AE01AF01F3
:101A5C002F08BB002E08BA002D08B9002C08B800BE
:101A6C002508AC002C08F00029080A168A15552206
:101A7C000A128A15710883120313BD007008BC008A
:101A8C003C08AC00AD01AE01AF012C08B2072D082B
:101A9C0003110318013E0319542DB3072E0803112B
:101AAC000318013E03195B2DB4072F08031103180B
:101ABC00013E0319622DB5073D08AC00AD01AE0126
:101ACC00AF012C08B8072D0803110318013E0319A8
:101ADC00702DB9072E0803110318013E0319772D39
:101AEC00BA072F0803110318013E03197E2DBB07FB
:101AFC002608AC002C08F00028080A168A15552276
:101B0C000A128A15710883120313BD007008BC00F9
:101B1C003C08AC00AD01AE01AF012C08B2072D089A
:101B2C0003110318013E03199C2DB3072E08031152
:101B3C000318013E0319A32DB4072F080311031832
:101B4C00013E0319AA2DB5073D08AC00AD01AE014D
:101B5C00AF012C08B8072D0803110318013E031917
:101B6C00B82DB9072E0803110318013E0319BF2D18
:101B7C00BA072F0803110318013E0319C62DBB0722
:101B8C000830AC000310B20DB30DB40DB50DAC0B99
:101B9C00C82D2508AC002C08F00028080A168A1558
:101BAC0055220A128A15710883120313BD0070089E
:101BBC00BC003C08AC003D08AD00AE01AF012C08E8
:101BCC00B2072D0803110318013E0319EE2DB307BC
:101BDC002E0803110318013E0319F52DB4072F0825
:101BEC0003110318013E0319FC2DB5072408AC00A2
:101BFC002C08F00029080A168A1555220A128A1593
:101C0C00710883120313BD007008BC003C08AC00C3
:101C1C003D08AD00AE01AF012C08B2072D08031131
:101C2C000318013E03191B2EB3072E0803110318CA
:101C3C00013E0319222EB4072F0803110318013E8D
:101C4C000319292EB5070830AC000310B20DB30DE3
:101C5C00B40DB50DAC0B2B2E2408AC002C08F000E9
:101C6C0028080A168A1555220A128A157108831239
:101C7C000313BD007008BC003C08AC003D08AD006F
:101C8C00AE01AF012C08B2072D0803110318013E59
:101C9C000319512EB3072E0803110318013E031923
:101CAC00582EB4072F0803110318013E03195F2E99
:101CBC00B5072508AC002C08F0002A080A168A156E
:101CCC0055220A128A15710883120313BD0070087D
:101CDC00BC003C08AC003D08AD00AE01AF012C08C7
:101CEC00B8072D0803110318013E03197E2EB907FE
:101CFC002E0803110318013E0319852EBA072F086D
:101D0C0003110318013E03198C2EBB072608AC00E7
:101D1C002C08F00029080A168A1555220A128A1571
:101D2C00710883120313BD007008BC003C08AC00A2
:101D3C003D08AD00AE01AF012C08B8072D0803110A
:101D4C000318013E0319AB2EB9072E080311031813
:101D5C00013E0319B22EBA072F0803110318013ED6
:101D6C000319B92EBB072608AC002C08F0002A0872
:101D7C000A168A1555220A128A1571088312031342
:101D8C00BD007008BC003C08AC003D08AD00AE01C5
:101D9C00AF0108300310AC0DAD0DAE0DAF0DFF3E15
:101DAC00031DD02E2C08B8072D0803110318013E73
:101DBC000319E12EB9072E0803110318013E03196C
:101DCC00E82EBA072F0803110318013E0319EF2E52
:101DDC00BB073208AC003308AD003408AE00350840
:101DEC00AF0018300310AF0CAE0CAD0CAC0CFF3EBA
:101DFC00031DF82E2C08B8072D0803110318013EFB
:101E0C000319092FB9072E0803110318013E0319F2
:101E1C00102FBA072F0803110318013E0319172FAF
:101E2C00BB070830AC000310B20DB30DB40DB50DEB
:101E3C00AC0B192F37083607AC00AD01AD0D2C08D3
:101E4C00823EBC002D080318013EFF3EBD004B2F07
:101E5C000130AC000310B80DB90DBA0DBB0DAC0BB5
:101E6C00302FB51F3A2F3B2F3C2F38140130AC00CC
:101E7C000310B20DB30DB40DB50DAC0B3E2FFF30EE
:101E8C00BC070318BD0AFF30BD07BA1F4E2F4F2FDA
:101E9C002E2FB601B51F532F542F702FFF30320544
:101EAC00AC00FF303305AD00FF303405AE007F30A1
:101EBC003505AF002F082E042D042C040319672FB1
:101ECC00682F6B2FB601B60A702F381C6E2F6F2F30
:101EDC00702F682F36080319742F752FA62F013019
:101EEC00B807003003180130B9070030031801306F
:101EFC00BA07003003180130BB073B1C862F872F15
:101F0C00A62F3808AC003908AD003A08AE003B08E3
:101F1C00AF000130B0002F0DAF0CAE0CAD0CAC0C03
:101F2C00B00B912F2F08BB002E08BA002D08B9005A
:101F3C002C08B8000130BC070318BD0A0030BD07DF
:101F4C003D08803AFF0080307F02031DAF2FFF3029
:101F5C003C02031CB22FB32FBE2F7F30831203130E
:101F6C00BB008030BA000030B9000030B800F32F4D
:101F7C00831203133D08803AFF0080307F02031D5B
:101F8C00C92F01303C020318CC2FCD2FD92F003094
:101F9C0083120313BB000030BA000030B9000030CC
:101FAC00B800B101F32F831203133C08AC002C08CA
:101FBC00B700FF30B805FF30B9057F30BA050030E7
:101FCC00BB05371CEA2FEB2FEC2FBA173708AC00E8
:101FDC0003102C0CAD002D08BB003108AC002C08F4
:101FEC00BB043B08A7003A08A6003908A50038082E
:101FFC00A4000800FF1B0A2883137F18831700080E
:10200C00840A0319FF0A080010308A000408840AA5
:10201C00820700340034003480343F340034003400
:10202C002034413400340034C83442340034003499
:10203C007A344434003440341C3446340034503444
:10204C00C3344734003424347434493480349634E3
:10205C0018344B342034BC34BE344C3428346B34F8
:10206C006E344E34F934023415345034EC34783444
:10207C00AD346034CA34F234493471340034003431
:10208C0080343F34CD34CC34CC343D340A34D73462
:10209C0023343C346F34123483343A341734B73429
:1020AC00D1343834AC34C53427343734BD343734B8
:1020BC00863435349534BF34D63433347734CC3419
:1020CC002B3432345F34703489343034FF34E6349A
:1020DC00DB342E340834E5343C341E346034423462
:1020EC00A2340D3401340034003400340A3400348A
:1020FC00003400346434003400340034E8340334E5
:10210C00003400341034273400340034A0348634C6
:10211C0001340034403442340F340034803496346B
:10212C00983400340034E134F53405340034CA34C6
:10213C009A343B345334313420342034203420341A
:10214C005334323420342034203463346F346E34BE
:10215C0074342E3400342534303434342E34323448
:10216C00663420342534303434342E3432346634EE
:10217C00003464008001840A040603190034040648
:10218C00C028031083120313530D540DD5005508AA
:10219C00DB005B08031DD328D428DD280030D400D5
:1021AC000030D3000030D2000030D1004229510859
:1021BC00D5005208D6005308D7005408D8001F3059
:1021CC000310D80CD70CD60CD50CFF3E031DE628FB
:1021DC005508D9005908DA00D317FF30D105FF3064
:1021EC00D205FF30D3050030D4059630DB02DB1F5F
:1021FC00002901291B295B08803A973E03180729FF
:10220C0008290929D42801300310D40CD30CD20C82
:10221C00D10CFF3E031D0A290130D5005508DB0700
:10222C00031D19291A290929322920305B02031CA4
:10223C00202921292D29D4280130D5000310D10DB6
:10224C00D20DD30DD40DD50B24290130DB025B0844
:10225C00031D3129322922295A0803193629372915
:10226C004229D109D209D309D409D10A0319D20AB6
:10227C000319D30A0319D40A08008312031345085F
:10228C008039C6004608CF004508C6004607C7007F
:10229C004708D600C41F53295429552956145608EB
:1022AC00031959295A296A29560A031D5E295F29DF
:1022BC0067290030C5000030C4000030C300003076
:1022CC00C200C417C50172290030C5000030C4001B
:1022DC000030C3000030C20041088039C6004608F7
:1022EC00CF064108C6004607C7004708D700C01FE5
:1022FC00802981298229571457080319862987298F
:10230C009729570A031D8B298C2994290030C10069
:10231C000030C0000030BF000030BE00C017C1014B
:10232C009F290030C1000030C0000030BF000030D9
:10233C00BE00410840043F043E04031DA629A72902
:10234C00C0290030C5000030C4000030C30000308C
:10235C00C2008030C4047F30C5044F08C600460854
:10236C00C5044508C1004408C0004308BF0042082A
:10237C00BE001F2B5608031DC429C529CE290030C9
:10238C00C1000030C0000030BF000030BE001F2B69
:10239C005608C600C7014708C90057084602C800BE
:1023AC00031CC90348087F3ED00049080318013EAE
:1023BC00003ED1004508CE004408CD004308CC00B7
:1023CC004208CB000030C5000030C4000030C30010
:1023DC000030C2000030D5000030D4000030D300F3
:1023EC000030D200D701442A57080319FE29FF29CF
:1023FC001F2A0130C6000310CB0DCC0DCD0DCE0D18
:10240C00C60B012A0130C6000310C20DC30DC40D4A
:10241C00C50DC60B0A2AD51F142A152A162A4214D2
:10242C000130C6000310D20DD30DD40DD50DC60B43
:10243C00182A41084E02031D2D2A40084D02031D87
:10244C002D2A3F084C02031D2D2A3E084B02031C6B
:10245C00302A312A402A55173E08CB023F08031C6C
:10246C003F0FCC024008031C400FCD024108031C57
:10247C00410FCE020130C6004608D7071A3057026A
:10248C00031C492A4A2AFA294E084D044C044B04D1
:10249C000319512A522A712A5214712A0130C6008A
:1024AC000310C20DC30DC40DC50DC60B562AD51F86
:1024BC00602A612A622A42140130C6000310D20D30
:1024CC00D30DD40DD50DC60B642AFF30D0070318DD
:1024DC00D10AFF30D107C41F742A752A542AD70198
:1024EC00D51F792A7A2A962AFF305205C600FF306A
:1024FC005305C700FF305405C8007F305505C9008F
:10250C00490848044704460403198D2A8E2A912A47
:10251C00D701D70A962A421C942A952A962A8E2AE3
:10252C00570803199A2A9B2ACC2A0130C20700307B
:10253C0003180130C307003003180130C407003002
:10254C0003180130C507451CAC2AAD2ACC2A420819
:10255C00C6004308C7004408C8004508C90001303C
:10256C00CA00490DC90CC80CC70CC60CCA0BB72A3B
:10257C004908C5004808C4004708C3004608C20003
:10258C000130D0070318D10A0030D1075108803A26
:10259C00FF0080307F02031DD52AFF305002031C40
:1025AC00D82AD92AE72AFF3083120313D00000302F
:1025BC00D1000030C5000030C4000030C300003032
:1025CC00C200831203135108803AFF0080307F024F
:1025DC00031DF22A013050020318F52AF62A032BA8
:1025EC0083120313D001D1010030C5000030C400A8
:1025FC000030C3000030C200CF0183120313500817
:10260C00C6004608D600561C0C2B0D2B0F2BC417DE
:10261C00132B7F30C6004608C4055608C6000310AD
:10262C00460CC7004708C5004F08C6004608C5043D
:10263C00B729080083120313D1006E305102031C1A
:10264C00282B292B362C3F30A7000030A600003059
:10265C00A5000030A4006430F6000030F7005108EB
:10266C00C200C3014208F8004308F9000A168A1593
:10267C001B230A168A11760883120313C400013037
:10268C000310C40DFF3E031D462B0310440D7D3E6D
:10269C0084000A168A110A200A168A11C5000A1625
:1026AC008A110A200A168A11C6000A168A110A20F3
:1026BC000A168A11C7000A168A110A200A168A11EC
:1026CC00C8004808AB004708AA004608A9004508FE
:1026DC00A8000A128A159F240A168A118312031362
:1026EC002708D0002608CF002508CE002408CD00EE
:1026FC000A30F6000030F7005108C200C30142084E
:10270C00F2004308F3006430F0000030F1000A16C8
:10271C008A15A5220A168A117108F9007008F800AA
:10272C000A168A151B230A168A11760883120313BC
:10273C00C40001300310C40DFF3E031DA02B031079
:10274C00440D593E84000A168A110A200A168A1171
:10275C00C5000A168A110A200A168A11C6000A1622
:10276C008A110A200A168A11C7000A168A110A2031
:10277C000A168A11C8004808A7004708A600460890
:10278C00A5004508A4005008AB004F08AA004E084D
:10279C00A9004D08A8000A128A159F240A168A114E
:1027AC00831203132708CC002608CB002508CA0087
:1027BC002408C9000A30F0000030F1005108C200B2
:1027CC00C3014208F2004308F3000A168A15A52239
:1027DC000A168A11700883120313C4000130031007
:1027EC00C40DFF3E031DF52B0310440D353E840034
:1027FC000A168A110A200A168A11C5000A168A11AD
:10280C000A200A168A11C6000A168A110A200A160C
:10281C008A11C7000A168A110A200A168A11C800E2
:10282C004808A7004708A6004608A5004508A400CC
:10283C004C08AB004B08AA004A08A9004908A8009C
:10284C000A128A159F240A168A1183120313270869
:10285C00C1002608C0002508BF002408BE002A2D90
:10286C000B305102031C3B2C3C2CE72C3F30A700B7
:10287C000030A6000030A5000030A4000A30F6009D
:10288C000030F7005108C200C3014208F8004308A9
:10289C00F9000A168A151B230A168A117608831268
:1028AC000313C40001300310C40DFF3E031D592C4B
:1028BC000310440D593E84000A168A110A200A1688
:1028CC008A11C5000A168A110A200A168A11C60036
:1028DC000A168A110A200A168A11C7000A168A11CA
:1028EC000A200A168A11C8004808AB004708AA003B
:1028FC004608A9004508A8000A128A159F240A1642
:10290C008A11831203132708D0002608CF0025084C
:10291C00CE002408CD000A30F0000030F100510840
:10292C00C200C3014208F2004308F3000A168A15DC
:10293C00A5220A168A11700883120313C4000130F1
:10294C000310C40DFF3E031DA62C0310440D353E91
:10295C0084000A168A110A200A168A11C5000A1662
:10296C008A110A200A168A11C6000A168A110A2030
:10297C000A168A11C7000A168A110A200A168A1129
:10298C00C8004808A7004708A6004608A500450847
:10299C00A4005008AB004F08AA004E08A9004D082F
:1029AC00A8000A128A159F240A168A11831203138F
:1029BC002708C1002608C0002508BF002408BE0057
:1029CC002A2D3F30A7000030A6000030A5000030B3
:1029DC00A4005108C20001300310C20DFF3E031DBC
:1029EC00F22C0310420D353E84000A168A110A207F
:1029FC000A168A11C3000A168A110A200A168A11AD
:102A0C00C4000A168A110A200A168A11C5000A1671
:102A1C008A110A200A168A11C6004608AB0045081E
:102A2C00AA004408A9004308A8000A128A159F248A
:102A3C000A168A11831203132708C1002608C00046
:102A4C002508BF002408BE00080083160313C70026
:102A5C00A130A9002908B2000A128A11D12F253001
:102A6C00480603193A2D3B2D472D4808A900470865
:102A7C0084002908831380000130A9002908C707A6
:102A8C00322DBF01C001BD01BE01512D3D150130DC
:102A9C00A9002908A007200884000A168A110A2018
:102AAC000A168A11A900AA012A08003A03195F2DF7
:102ABC00642D2908303A03194C2D642D200884000C
:102ACC000A168A110A200A168A110A128A1106207D
:102ADC000A168A11031C732D742DB42D831603133F
:102AEC00BF01C0010A30F0000030F100831603135F
:102AFC004008F3003F08F2000A168A150A220A164B
:102B0C008A11710883160313C0007008BF002008D7
:102B1C0084000A168A110A200A168A11D03EA900CE
:102B2C00FF3003180030AA002908BF070318C00A99
:102B3C002A08C0070130A9002908A0072008840032
:102B4C000A168A110A200A168A110A128A110620FC
:102B5C000A168A110318B32DB42D782D831603137E
:102B6C00200884000A168A110A200A168A112E3AA5
:102B7C00031DC12DC22D072E3E170130A9002908B7
:102B8C00A007C501C601F62D0A30F0000030F10097
:102B9C00831603134608F3004508F2000A168A153B
:102BAC000A220A168A11710883160313C6007008CC
:102BBC00C500200884000A168A110A200A168A11F8
:102BCC00D03EA900FF3003180030AA002908C50721
:102BDC000318C60A2A08C6070130A9002908A0074D
:102BEC00200884000A168A110A200A168A110A1271
:102BFC008A1106200A168A110318052E062ECA2DD4
:102C0C000D2EC501C6013E160D2E3E15292E013086
:102C1C0083160313A007FF30200784000A168A11BD
:102C2C000A200A168A11C800A900AA012A08003A2B
:102C3C000319212E322D2908003A0319FD2F663A6B
:102C4C0003190B2E322D00303D05A90007303E052F
:102C5C00AA0029082A040319342E372E0A128A11C5
:102C6C00D32E3E1E3A2E3B2E3F2E0630C500003092
:102C7C00C6003208840083130008C100840A0008CF
:102C8C00C200840A0008C300840A0008C40004308F
:102C9C00A9002908B2074408F3004308F2004208CF
:102CAC00F1004108F0000030F7000030F600003071
:102CBC00F5000030F4000A168A1529250A168A1127
:102CCC000318692E6A2E872E831603134408F3000B
:102CDC004308F2004208F1004108F0000A168A1578
:102CEC009B210A168A11730883160313C4007208F9
:102CFC00C3007108C2007008C1000330BD0400306D
:102D0C00BE0483160313BB01BC014408F300430843
:102D1C00F2004208F1004108F0000030F7000030EA
:102D2C00F6000030F5000030F4000A168A155F2317
:102D3C000A168A110318A32EA42E942F031083169F
:102D4C000313430D440D823EBB00FF3003180030CB
:102D5C00BC00FF30BB070318BC0AFF30BC070330B4
:102D6C00F0000030F1003C08F3003B08F2000A16BA
:102D7C008A150A220A168A11710883160313BC00DD
:102D8C007008BB000A30F7000030F8003C08FA006D
:102D9C003B08F9000A168A15C0240A168A1178080D
:102DAC0083160313BC007708BB00BC1FDE2EDF2E7E
:102DBC00E52EFF30BB070318BC0AFF30BC073B03F2
:102DCC00FF3A0A128A1540210A168A11831203133C
:102DDC00410883160313BA008312031340088316A9
:102DEC000313B900831203133F0883160313B800AF
:102DFC00831203133E0883160313B700440883128F
:102E0C000313A70083160313430883120313A600AE
:102E1C0083160313420883120313A50083160313AE
:102E2C00410883120313A400831603133A08831278
:102E3C000313AB0083160313390883120313AA0080
:102E4C0083160313380883120313A9008316031384
:102E5C00370883120313A8000A128A159F240A1636
:102E6C008A1183120313270883160313BA008312E3
:102E7C000313260883160313B900831203132508C2
:102E8C0083160313B8008312031324088316031349
:102E9C00B7003A08F3003908F2003808F100370897
:102EAC00F0003F30F7008030F6000030F5000030C5
:102EBC00F4000A168A1529250A168A110318672F99
:102ECC00682F712FFF3083160313BB070318BC0A3E
:102EDC00FF30BC07942F831603133A08F30039080C
:102EEC00F2003808F1003708F0004130F7002030CC
:102EFC00F6000030F5000030F4000A168A1529257A
:102F0C000A168A11031C8B2F8C2F942F01308316D9
:102F1C000313BB070318BC0A0030BC07831603134A
:102F2C004608803AFF0080307F02031D9F2F0D3032
:102F3C0045020318A22FA32FEA2F8316031345086B
:102F4C000A168A1120230A168A11831203134108C8
:102F5C00D5004008D4003F08D3003E08D2008316A9
:102F6C000313440883120313D90083160313430875
:102F7C0083120313D800831603134208831203131E
:102F8C00D70083160313410883120313D6000A12C9
:102F9C008A1118200A168A118312031355088316F6
:102FAC000313C40083120313540883160313C300C2
:102FBC0083120313530883160313C20083120313E3
:102FCC00520883160313C100831603133C08803A7E
:102FDC00FF0080307F02031DF52F0A303B020318DF
:102FEC00FA2F0A128A11A02A0A128A11F12A0A123D
:042FFC008A11E52F22
:1033360073087204710470040319A229A329A5292C
:103346008030F30608008312031307172730F100B5
:10335600F530F000F00BAD29F10BAD298312031304
:1033660007130800F2000A168A157C220A168A1527
:103376007208831203138600071287120A168A152B
:10338600A6210A168A15080038300A168A15B521AC
:103396000A168A150C300A168A15B5210A168A15D8
:1033A60001300A168A15B5210A168A1506300A163C
:1033B6008A15B5210A168A1580300A168A15B5218E
:1033C6000A168A150800803083120313E9066D0871
:1033D600D5006C08D4006B08D3006A08D2006908CF
:1033E600D9006808D8006708D7006608D6000A1210
:1033F6008A1118200A168A15831203135508E90044
:103406005408E8005308E7005208E6000800F401F3
:10341600F501701C0F2A102A162A7208F4070318E1
:10342600F50A7308F50701300310F20DF30DFF3EA0
:10343600031D172A01300310F10CF00CFF3E031D8B
:103446001E2A70087104031D292A2A2A0C2A7508C7
:10345600F1007408F0000800442A7408FF0073089D
:1034660084000A168A1100200A168A150A128A157D
:1034760000200A168A150130F3070318F40A0030F3
:10348600F407740883120313FF00730884000A16F6
:103496008A1100200A168A15003A031D532A542A57
:1034A600302A0800F800F401F5017008F200F30173
:1034B6007208F6007308F700781C622A632A692AE4
:1034C6007608F4070318F50A7708F50701300310A4
:1034D600F60DF70DFF3E031D6A2A0310F80C780857
:1034E600031D762A772A5F2A7508F1007408F00012
:1034F6000800FF308312031386008030F000700846
:1035060086050712871607132730F100F530F000FD
:10351600F00B8B2AF10B8B2A8312031307178030CB
:103526000606031D972A982AA42A07132730F100B6
:10353600F530F000F00B9D2AF10B9D2A8312031340
:1035460007170800700871040319AA2AAB2ADA2A99
:10355600F501F50AB92A01300310F00DF10DFF3E11
:10356600031DAF2A0130F4007408F507F11FBC2AC9
:10357600BD2AAE2A71087302031DC32A700872029F
:10358600031CC62AC72ACD2A7008F2027108031C3A
:10359600F303F30201300310F10CF00CFF3E031DA0
:1035A600CE2A0130F502031DD92ADA2ABD2A73086C
:1035B600F1007208F000080009308316031788002E
:1035C6008901093083160313850086018701880166
:1035D6008901831203138501860187018801890108
:1035E600831603130F088F3960388F008F110F1160
:1035F6008F100F140A168A15C7210A168A150A1281
:103606008A1512200A168A1500300A168A15B5215F
:103616000A168A15823083160313CA00DD30C900E4
:10362600C90B132BCA0B132B072B0A128A1100285E
:10363600FB01FC01760877040319222B232B5A2B56
:10364600FD01FD0A312B01300310F60DF70DFF3E8B
:10365600031D272B0130FA007A08FD07F71F342BCC
:10366600352B262B01300310FB0DFC0DFF3E031DF1
:10367600362B77087902031D422B76087802031C45
:10368600452B462B4D2B7608F8027708031CF903C9
:10369600F9027B1401300310F70CF60CFF3E031DF4
:1036A6004E2B0130FD02031D592B5A2B352B7C085E
:1036B600F7007B08F600080000307005F8000030BF
:1036C6007105F90080307205FA007F307305FB0042
:1036D6007B087A0479047804031D722B732B7B2BE9
:1036E6000030F3000030F2000030F1000030F0004E
:1036F60000307405F80000307505F9008030760555
:10370600FA007F307705FB007B087A047904780499
:10371600031D8E2B8F2B972B0030F7000030F60001
:103726000030F5000030F40077087306031DA52B62
:1037360076087206031DA52B75087106031DA52BB9
:10374600740870060319A82BA92BAB2B0310AC2BFE
:103756000314080073087204710470040319B42B6F
:10376600B52BF82BF901F90AC52B0130F800031027
:10377600F00DF10DF20DF30DF80BBA2B0130F80038
:103786007808F907F31FC82BC92BB82B73087702E3
:10379600031DD72B72087602031DD72B71087502FD
:1037A600031DD72B70087402031CDA2BDB2BE92BC5
:1037B6007008F4027108031C710FF5027208031CED
:1037C600720FF6027308031C730FF7020130031021
:1037D600F30CF20CF10CF00CFF3E031DEA2B01304A
:1037E600F902031DF72BF82BC92B7708F30076088F
:1037F600F2007508F1007408F0000800F601F31FE6
:10380600052C062C0D2CF209F309F20A0319F30A0A
:10381600F601F60AF11F102C112C162CF009F109ED
:10382600F00A0319F10A7008710403191B2C1C2CE9
:103836004B2CF501F50A2A2C01300310F00DF10D81
:10384600FF3E031D202C0130F4007408F507F11F1C
:103856002D2C2E2C1F2C71087302031D342C70087E
:103866007202031C372C382C3E2C7008F2027108A9
:10387600031CF303F30201300310F10CF00CFF3EBE
:10388600031D3F2C0130F502031D4A2C4B2C2E2C18
:10389600760803194F2C502C552CF209F309F20A1D
:1038A6000319F30A7308F1007208F00008000030EB
:1038B600FC000030FB000030FA000030F90073080D
:1038C6007204710470040319692C6A2CB72CFD016B
:1038D600FD0A7A2C0130F8000310F00DF10DF20DFF
:1038E600F30DF80B6F2C0130F8007808FD07F31F75
:1038F6007D2C7E2C6D2C0130F8000310F90DFA0D8D
:10390600FB0DFC0DF80B802C73087702031D952C1C
:1039160072087602031D952C71087502031D952CFD
:1039260070087402031C982C992CA82C7008F402B9
:103936007108031C710FF5027208031C720FF60260
:103946007308031C730FF702791401300310F30C8C
:10395600F20CF10CF00CFF3E031DA92C0130FD0208
:10396600031DB62CB72C7E2C7C08F3007B08F200D6
:103976007A08F1007908F000080083120313A10108
:10398600F81FC62CC72CCE2CF709F809F70A03191D
:10399600F80AA101A10AFA1FD12CD22CDB2CF909B5
:1039A600FA09F90A0319FA0A0130FB007B08A10695
:1039B600A201A301770878040319E22CE32C1A2D3F
:1039C600A001A00AF12C01300310F70DF80DFF3EFF
:1039D600031DE72C0130FB007B08A007F81FF42C21
:1039E600F52CE62C01300310A20DA30DFF3E031D9E
:1039F600F62C78087A02031D022D77087902031C3B
:103A0600052D062D0D2D7708F9027808031CFA03FB
:103A1600FA02221401300310F80CF70CFF3E031DC6
:103A26000E2D0130A002031D192D1A2DF52C21088B
:103A360003191E2D1F2D242DA209A309A20A03195D
:103A4600A30A2308F8002208F700080000307005D2
:103A5600F80000307105F90080307205FA007F30F9
:103A66007305FB007B087A0479047804031D3C2D5A
:103A76003D2D452D0030F3000030F2000030F100FE
:103A86000030F00000307405F80000307505F900CC
:103A960080307605FA007F307705FB007B087A04D4
:103AA60079047804031D582D592D612D0030F70037
:103AB6000030F6000030F5000030F400F31F642DEE
:103AC600652D892D0030F8000030F9000030FA002D
:103AD6008030FB007008F8027108031C710F742D0A
:103AE600752DF9027208031C720F7A2D7B2DFA02CE
:103AF6007308031C730F802D812DFB027B08F300D6
:103B06007A08F2007908F1007808F000F71F8C2D8A
:103B16008D2DB12D0030F8000030F9000030FA008C
:103B26008030FB007408F8027508031C750F9C2D85
:103B36009D2DF9027608031C760FA22DA32DFA02FD
:103B46007708031C770FA82DA92DFB027B08F70029
:103B56007A08F6007908F5007808F4008030F30654
:103B66008030F70677087302031DC32D76087202AC
:103B7600031DC32D75087102031DC32D7408700241
:103B86000318C62DC72DC92D0310CA2D031408000E
:103B9600F80078080319D02DD12DE52DF31FD42D6B
:103BA600D52DE52D7009FA007109FB007209FC009C
:103BB6007309FD00FA0A0319FB0A0319FC0A031923
:103BC600FD0AED2D7308FD007208FC007108FB006C
:103BD6007008FA007308720471047004031DF42D52
:103BE600F52DFE2D0030F3000030F2000030F1001C
:103BF6000030F000842E9630F4007408F900102E80
:103C06000130F4007408F90701300310FD0CFC0CB8
:103C1600FB0CFA0CFF3E031D082EFE307D05031D2E
:103C2600152E162E032E322E0130F4007408F907D5
:103C36000130FA07003003180130FB070030031883
:103C46000130FC07003003180130FD070130031076
:103C5600FD0CFC0CFB0CFA0CFF3E031D2A2EFF305C
:103C66007D05031D372E382E172E442E0130F902FE
:103C76000130F4000310FA0DFB0DFC0DFD0DF40BE5
:103C86003D2EFC1B472E482E4E2E0230790203187D
:103C96004D2E4E2E392E7918512E522E5A2EFF3079
:103CA600FA05FF30FB057F30FC05FF30FD050310EC
:103CB600F90C7908F400F501F601F7011830031044
:103CC600F40DF50DF60DF70DFF3E031D622E74087B
:103CD600FA047508FB047608FC047708FD047808E6
:103CE6000319762E772E7C2EF31F7A2E7B2E7C2EB2
:103CF600FD177D08F3007C08F2007B08F1007A08C6
:103D0600F00008007008F8007108F9007208FA005F
:103D16000310790D7A0DFB007B0883120313A500AF
:103D26002508031D972E982EA12E0030F300003093
:103D3600F2000030F1000030F000412F7408F80066
:103D46007508F9007608FA000310790D7A0DFB0064
:103D56007B08A4002408031DB12EB22EB32E982E84
:103D6600F117FF30F005FF30F1050030F205F517C9
:103D7600FF30F405FF30F5050030F6050030A300EE
:103D86000030A2000030A1000030A0007F30A50264
:103D960098302407F8007808A5021830F80078084B
:103DA600A4000130F8000310A00DA10DA20DA30D73
:103DB600F80BD62E76087202031DE72E75087102DF
:103DC600031DE72E74087002031CEA2EEB2EF62E56
:103DD6007408F0027508031C750FF1027608031CBF
:103DE600760AF202201401300310F00DF10DF20DE7
:103DF600FF3E031DF72E0130A402031D032F042FDF
:103E0600D42EA51F072F082F222F2508803A973E6C
:103E160003180E2F0F2F102F982E01300310A30C0E
:103E2600A20CA10CA00CFF3E031D112F0130F800BF
:103E36007808A507031D202F212F102F392F1830A2
:103E46002502031C272F282F342F982E0130F80027
:103E56000310A00DA10DA20DA30DF80B2B2F013001
:103E6600A5022508031D382F392F292F2308F30013
:103E76002208F2002108F1002008F00008000310D3
:103E8600720D730DF800780883120313A500250838
:103E9600031D4E2F4F2F582F0030F3000030F20035
:103EA6000030F1000030F000FF2F0310760D770D83
:103EB600F8007808A4002408031D622F632F642FDE
:103EC6004F2FF217FF30F005FF30F105FF30F205F6
:103ED6000030F305F617FF30F405FF30F505FF3027
:103EE600F6050030F7050030A3000030A2000030D0
:103EF600A1000030A0007F30A502A0302407F80002
:103F06007808A5022030F8007808A4000130F800EF
:103F16000310A00DA10DA20DA30DF80B8B2F770892
:103F26007302031DA02F76087202031DA02F7508C9
:103F36007102031DA02F74087002031CA32FA42F67
:103F4600B32F7408F0027508031C750FF10276088A
:103F5600031C760FF2027708031C770FF302201476
:103F66000130F8000310F00DF10DF20DF30DF80B12
:103F7600B52F0130A402031DC12FC22F892FA51F03
:103F8600C52FC62FE02F2508803A9F3E0318CC2F59
:103F9600CD2FCE2F4F2F01300310A30CA20CA10C56
:103FA600A00CFF3E031DCF2F0130F8007808A507AF
:103FB600031DDE2FDF2FCE2FF72F20302502031C07
:103FC600E52FE62FF22F4F2F0130F8000310A00D3A
:103FD600A10DA20DA30DF80BE92F0130A5022508AE
:103FE600031DF62FF72FE72F2308F3002208F20010
:0A3FF6002108F1002008F000080087
:04400E00D4E0FFFFFC
:00000001FF
