:020000040000FA
:060000000A128A1110280B
:10000800FE00030E83120313B1000408B2000A08AD
:10001800B3000A168A11702F0A128A111328831343
:100028004A3084005B300A168A112F270A128A1177
:10003800A0308400D6300A168A112F270A128A1196
:1000480083160317A601A701A801A901AA01830124
:100058000A128A15D3288312031345088039831698
:100068000313D6005608DB008312031345088316D2
:100078000313D6005607D7005708E100831203136D
:10008800C41F472848284B28831603136114831676
:10009800031361080319512852286428610A031DB3
:1000A800562857286128003083120313C5000030F2
:1000B800C4000030C3000030C2008312C4176E2889
:1000C800003083120313C5000030C4000030C300A1
:1000D8000030C2004908803983160313D600560839
:1000E800DB0683120313490883160313D600560749
:1000F800D7005708DC0083120313C81F84288528FB
:100108008828831603135C14831603135C080319E9
:100118008E288F28A1285C0A031D932894289E28DE
:10012800003083120313C9000030C8000030C70034
:100138000030C6008312C817AB280030831203139F
:10014800C9000030C8000030C7000030C600831660
:1001580003135C080319B128B228B7286108031DE6
:10016800B628B728C228003083120313C500003010
:10017800C4000030C3000030C2002F2C83120313C8
:10018800420883160313D600560883120313B400DB
:1001980048080A168A11D7270A128A1183120313EC
:1001A800350883160313E7008312031334088316F4
:1001B8000313E6006608D600D701D801D90159080B
:1001C800E0005808DF005708DE005608DD00670821
:1001D800D600D701D801D9015908E5005808E4002C
:1001E8005708E3005608E2008312031343088316F6
:1001F8000313D600560883120313B40047080A16DF
:100208008A11D7270A128A11831203133508831615
:100218000313E70083120313340883160313E6005D
:100228006608D600D701D801D9015608DD07570856
:1002380003110318013E03192229DE075808031188
:100248000318013E03192929DF0759080311031868
:10025800013E03193029E0076708D600D701D80105
:10026800D9015608E207570803110318013E03197C
:100278003E29E307580803110318013E03194529CD
:10028800E407590803110318013E03194C29E5072F
:1002980083120313440883160313D60056088312E7
:1002A8000313B40046080A168A11D7270A128A11BE
:1002B80083120313350883160313E700831203130D
:1002C800340883160313E6006608D600D701D80160
:1002D800D9015608DD07570803110318013E031911
:1002E8007629DE07580803110318013E03197D29F2
:1002F800DF07590803110318013E03198429E00791
:100308006708D600D701D801D9015608E20757086F
:1003180003110318013E03199229E3075808031132
:100328000318013E03199929E40759080311031812
:10033800013E0319A029E5070830D6000310DD0D9A
:10034800DE0DDF0DE00DD60BA2298312031343083F
:1003580083160313D600560883120313B400460805
:100368000A168A11D7270A128A118312031335082D
:1003780083160313E7008312031334088316031349
:10038800E6006608D6006708D700D801D9015608E4
:10039800DD07570803110318013E0319D429DE07A6
:1003A800580803110318013E0319DB29DF07590810
:1003B80003110318013E0319E229E007831203130E
:1003C800420883160313D600560883120313B40099
:1003D80047080A168A11D7270A128A1183120313AB
:1003E800350883160313E7008312031334088316B2
:1003F8000313E6006608D6006708D700D801D901BC
:100408005608DD07570803110318013E03190D2A82
:10041800DE07580803110318013E0319142ADF07E1
:10042800590803110318013E03191B2AE007083075
:10043800D6000310DD0DDE0DDF0DE00DD60B1D2AF5
:1004480083120313420883160313D6005608831237
:100458000313B40046080A168A11D7270A128A110C
:1004680083120313350883160313E700831203135B
:10047800340883160313E6006608D6006708D70019
:10048800D801D9015608DD07570803110318013EA2
:1004980003194F2ADE07580803110318013E0319F0
:1004A800562ADF07590803110318013E03195D2A6C
:1004B800E00783120313430883160313D600560874
:1004C80083120313B40048080A168A11D7270A12A0
:1004D8008A1183120313350883160313E700831266
:1004E8000313340883160313E6006608D60067086A
:1004F800D700D801D9015608E20757080311031895
:10050800013E0319882AE307580803110318013E1E
:1005180003198F2AE407590803110318013E031928
:10052800962AE50783120313440883160313D6009B
:10053800560883120313B40047080A168A11D727EE
:100548000A128A1183120313350883160313E7006E
:1005580083120313340883160313E6006608D600D3
:100568006708D700D801D9015608E20757080311D0
:100578000318013E0319C12AE30758080311031899
:10058800013E0319C82AE407590803110318013E5C
:100598000319CF2AE50783120313440883160313AC
:1005A800D600560883120313B40048080A168A11A5
:1005B800D7270A128A1183120313350883160313E7
:1005C800E70083120313340883160313E600660852
:1005D800D6006708D700D801D90108300310D60D16
:1005E800D70DD80DD90DFF3E031DF22A5608E20794
:1005F800570803110318013E0319032BE307580892
:1006080003110318013E03190A2BE40759080311C3
:100618000318013E0319112BE5075D08D6005E0893
:10062800D7005F08D8006008D90018300310D90C2B
:10063800D80CD70CD60CFF3E031D1A2B5608E20720
:10064800570803110318013E03192B2BE307580819
:1006580003110318013E0319322BE407590803114B
:100668000318013E0319392BE5070830D60003109B
:10067800DD0DDE0DDF0DE00DD60B3B2B61085C07B1
:10068800D600D701D70D5608823EE6005708031852
:10069800013EFF3EE7006D2B0130D6000310E20D4E
:1006A800E30DE40DE50DD60B522BE01F5C2B5D2B03
:1006B8005E2B62140130D6000310DD0DDE0DDF0D58
:1006C800E00DD60B602BFF30E6070318E70AFF3072
:1006D800E707E41F702B712B502BDC01E01F752BF3
:1006E800762B922BFF305D05D600FF305E05D700D4
:1006F800FF305F05D8007F306005D90059085804DD
:10070800570456040319892B8A2B8D2BDC01DC0A2C
:10071800922B621C902B912B922B8A2B5C0803192D
:10072800962B972BC82B0130E207003003180130B5
:10073800E307003003180130E407003003180130E4
:10074800E507651CA82BA92BC82B6208D6006308EF
:10075800D7006408D8006508D9000130DA00590DBF
:10076800D90CD80CD70CD60CDA0BB32B5908E500EA
:100778005808E4005708E3005608E2000130E6078D
:100788000318E70A0030E7076708803AFF0080305F
:100798007F02031DD12BFF306602031CD42BD52BFF
:1007A800E02B7F3083160313E5008030E40000302F
:1007B800E3000030E200152C831603136708803A23
:1007C800FF0080307F02031DEB2B01306602031807
:1007D800EE2BEF2BFB2B003083160313E5000030C4
:1007E800E4000030E3000030E200DB01152C831642
:1007F80003136608D6005608E100FF30E205FF3013
:10080800E3057F30E4050030E505611C0C2C0D2C58
:100818000E2CE4176108D6000310560CD7005708B1
:10082800E5005B08D6005608E50465088312031343
:10083800C50083160313640883120313C4008316C8
:100848000313630883120313C30083160313620898
:1008580083120313C2000800831203131F179F1388
:100868001F14831603139F131F129F120130831244
:100878000313B7008030B8000A168A11AF270A128E
:100888008A11C73083160317A2004A2CA20B492CE1
:100898004D2C831203131F119F111F129F121F1437
:1008A8009F140C131E0883160317A2002208831234
:1008B8000313DA00433083160313EB007F30EA009A
:1008C8000030E9000030E800403083120313C5000F
:1008D800A030C4000030C3000030C2005A0883169C
:1008E8000317A200A301A401A5012508831203137D
:1008F800B70083160317240883120313B600831660
:100908000317230883120313B5008316031722085D
:1009180083120313B40001300A128A15AF240A1295
:100928008A11831203133708C9003608C80035082E
:10093800C7003408C6000A128A112F200A128A1129
:1009480083120313450883160313EF00831203135E
:10095800440883160313EE00831203134308831617
:100968000313ED0083120313420883160313EC00EC
:100978000A128A156B250A128A11831603136B084B
:10098800A7006A08A6006908A5006808A400270847
:1009980083120313C9008316031326088312031353
:1009A800C80083160313250883120313C700831690
:1009B8000313240883120313C6004230C500C8304D
:1009C800C4000030C3000030C2000A128A112F2070
:1009D8000A128A1183120313450883160313EB00C6
:1009E80083120313440883160313EA0083120313C4
:1009F800430883160313E90083120313420883167E
:100A08000313E8000A128A1513240A128A1183169E
:100A18000313690883120313D700831603136808A6
:100A280083120313D6000A30BD000030BE005708F9
:100A3800C0005608BF000A128A154D220A128A11F0
:100A4800831203133E08D5003D08D400D130831625
:100A58000313D6000030D7008312031355088316FA
:100A68000313D90083120313540883160313D80001
:100A78000A30DA000030DB000A128A1503220A1253
:100A88008A110A3083120313BD000030BE000A30F9
:100A9800B4000030B5005708B7005608B6000A126F
:100AA8008A15A8220A128A11831203133508C00076
:100AB8003408BF000A128A154D220A128A118312BD
:100AC80003133E08D3003D08D200CC30831603132D
:100AD800D6000030D700831203135308831603137C
:100AE800D90083120313520883160313D8000A305F
:100AF800DA000030DB000A128A1503220A128A1172
:100B08000A3083120313BD000030BE006430B40005
:100B18000030B5005708B7005608B6000A128A1503
:100B2800A8220A128A11831203133508C000340858
:100B3800BF000A128A154D220A128A118312031362
:100B48003E08D1003D08D000C73083160313D600F5
:100B58000030D70083120313510883160313D900FA
:100B680083120313500883160313D8000A30DA00DF
:100B78000030DB000A128A1503220A128A11D130CA
:100B880083160317A200220883120313B400CC3083
:100B98000A128A1521200A128A11103083160317A7
:100BA800A200220883120313B400C2300A168A1165
:100BB8008C270A128A11CC3083160317A200220848
:100BC80083120313B400C2300A128A1521200A12B4
:100BD8008A11C23083160317A20022088312031356
:100BE800B400C7300A128A1521200A128A11C730A8
:100BF80083160317A200A20BFF2D831203131F15E0
:100C08009F151F129F121F149F140C131E08831682
:100C18000317A200220883120313D9004330831656
:100C28000313EB007F30EA000030E9000030E800F1
:100C3800403083120313C500A030C4000030C30045
:100C48000030C200590883160317A200A301A401AB
:100C5800A501250883120313B70083160317240878
:100C680083120313B6008316031723088312031392
:100C7800B50083160317220883120313B40001304A
:100C88000A128A15AF240A128A118312031337082D
:100C9800C9003608C8003508C7003408C6000A125B
:100CA8008A112F200A128A1183120313450883160A
:100CB8000313EF0083120313440883160313EE0093
:100CC80083120313430883160313ED0083120313DF
:100CD800420883160313EC000A128A156B250A12C0
:100CE8008A11831603136B08A3006A08A200690817
:100CF800A1006808A000230883120313C900831603
:100D08000313220883120313C80083160313210850
:100D180083120313C70083160313200883120313D7
:100D2800C6004230C500C830C4000030C3000030DF
:100D3800C2000A128A112F200A128A118312031381
:100D4800450883160313EB00831203134408831624
:100D58000313EA0083120313430883160313E900FD
:100D680083120313420883160313E8000A128A1534
:100D780013240A128A1183160313690883120313B2
:100D8800CF0083160313680883120313CE000A30BA
:100D9800BD000030BE004F08C0004E08BF000A1258
:100DA8008A154D220A128A11831203133E08CD00B8
:100DB8003D08CC00BD3083160313D6000030D700A1
:100DC800831203134D0883160313D90083120313E8
:100DD8004C0883160313D8000A30DA000030DB0011
:100DE8000A128A1503220A128A110A30831203137F
:100DF800BD000030BE000A30B4000030B5004F0816
:100E0800B7004E08B6000A128A15A8220A128A11DB
:100E1800831203133508C0003408BF000A128A156C
:100E28004D220A128A11831203133E08CB003D0893
:100E3800CA00B83083160313D6000030D7008312D7
:100E480003134B0883160313D900831203134A08AC
:100E580083160313D8000A30DA000030DB000A12C8
:100E68008A1503220A128A110A3083120313BD005D
:100E78000030BE006430B4000030B5004F08B70041
:100E88004E08B6000A128A15A8220A128A1183127D
:100E980003133508C0003408BF000A128A154D2212
:100EA8000A128A11831203133E0883160313AD0036
:100EB800831203133D0883160313AC00B330D60026
:100EC8000030D7002D08D9002C08D8000A30DA00E5
:100ED8000030DB000A128A1503220A128A11BD307B
:100EE80083160317A200220883120313B400B83034
:100EF8000A128A1521200A128A1110308316031744
:100F0800A200220883120313B400AE300A168A1115
:100F18008C270A128A11B83083160317A2002208F8
:100F280083120313B400AE300A128A1521200A1264
:100F38008A11AE3083160317A20022088312031306
:100F4800B400B3300A128A1521200A128A11C0305F
:100F58000A168A115C270A128A11C73083120313F2
:100F6800B7000030B8000A168A11AF270A128A1192
:100F7800123083120313B7008030B8000A168A11A2
:100F8800AF270A128A11B33083120313B700003057
:100F9800B8000A168A11AF270A128A111230831272
:100FA8000313B7008030B8000A168A11AF270A1257
:100FB8008A11A63083120313B7000130B8000A164D
:100FC8008A11AF270A128A11452C080083120313CD
:100FD800B6000A128A15A4200A128A118312031372
:100FE80036088600881708110A168A1137270A1248
:040FF8008A11080052
:1010040038300A168A115C270A128A150C300A161F
:101014008A115C270A128A1501300A168A115C2784
:101024000A128A1506300A168A115C270A128A15D2
:1010340080300A168A115C270A128A150800831266
:101044000313B7003708B5003508B6002D28013062
:10105400B5003508B6073608840083130008031D5D
:101064003428352829283E280130B5003508B6072C
:101074000130B5003508B407340884000008B50011
:1010840036088400350880000008031D4A284B28D0
:101094003628080083120313A71F512852286628F4
:1010A4002D30AA00240884008317251C83132A08E2
:1010B40080000130A4070318A50A0030A507A6097B
:1010C400A709A60A0319A70A2408F8002508F900A5
:1010D4002708FB002608FA002908FD002808FC0060
:1010E4000A128A1511230A128A150800831203139F
:1010F4002E0883160313A900831203132D088316E5
:101104000313A8002908AB002808AA00A6308312FC
:101114000313A4000130A500831603132B088312C4
:101124000313A700831603132A0883120313A600CC
:101134000A30A8000030A9000A128A154C200A12AD
:101144008A150800FF308312031386008030B40030
:101154003408860588130815881127308312031371
:10116400B500F430B400B40BB528B50BB5280000B5
:1011740083120313881580300606031DC228C32872
:10118400D2288811273083120313B500F430B40039
:10119400B40BCA28B50BCA280000831203138815A0
:1011A4000800093083160317880089010930831663
:1011B40003138500860188018901831203138501C5
:1011C4008601870188018901831603130F088F396B
:1011D40060388F008F110F118F100F140A128A15A7
:1011E40002200A128A150A168A1149270A128A1538
:1011F4000A128A1130240A128A15F0280A128A1156
:101204001028700871040319082909293829F501DF
:10121400F50A172901300310F00DF10DFF3E031DEF
:101224000D290130F4007408F507F11F1A291B2950
:101234000C2971087302031D212970087202031C12
:10124400242925292B297008F2027108031CF303B1
:10125400F30201300310F10CF00CFF3E031D2C29A6
:101264000130F502031D372938291B297308F100C1
:101274007208F000080083120313340835040319BC
:10128400442945297429B901B90A532901300310A5
:10129400B40DB50DFF3E031D49290130B8003808CF
:1012A400B907B51F56295729482935083702031DA0
:1012B4005D2934083602031C602961296729340832
:1012C400B6023508031CB703B70201300310B50C8E
:1012D400B40CFF3E031D68290130B902031D7329B4
:1012E400742957293708B5003608B4000800F501F9
:1012F400F60170087104031980298129B829F701BE
:10130400F70A8F2901300310F00DF10DFF3E031D84
:1013140085290130F4007408F707F11F92299329F5
:10132400842901300310F50DF60DFF3E031D9429A9
:1013340071087302031DA02970087202031CA329FB
:10134400A429AB297008F2027108031CF303F30209
:10135400751401300310F10CF00CFF3E031DAC2991
:101364000130F702031DB729B82993297608F10043
:101374007508F000080083120313B901BA01340898
:1013840035040319C629C729FE29BB01BB0AD5297F
:1013940001300310B40DB50DFF3E031DCB29013000
:1013A400B8003808BB07B51FD829D929CA29013084
:1013B4000310B90DBA0DFF3E031DDA2935083702B3
:1013C400031DE62934083602031CE929EA29F12918
:1013D4003408B6023508031CB703B70239140130C8
:1013E4000310B50CB40CFF3E031DF2290130BB02FF
:1013F400031DFD29FE29D9293A08B5003908B4008E
:10140400080083160313D91F082A092A252A2D3018
:1014140083120313C600831603135608840083172C
:10142400571C83138312031346088000013083166C
:101434000313D6070318D70A0030D707D809D909E8
:10144400D80A0319D90A560883120313BC00831659
:101454000313570883120313BD008316031359089B
:1014640083120313BF008316031358088312031354
:10147400BE00831603135B0883120313C100831693
:1014840003135A0883120313C0000A128A15922305
:101494000A128A15080083120313C301C01F532ABA
:1014A400542A5B2ABF09C009BF0A0319C00AC30131
:1014B400C30ABE1F5E2A5F2A642ABD09BE09BD0A8B
:1014C4000319BE0A3D083E040319692A6A2A992AA7
:1014D400C201C20A782A01300310BD0DBE0DFF3EC1
:1014E400031D6E2A0130C1004108C207BE1F7B2ABA
:1014F4007C2A6D2A3E084002031D822A3D083F02D1
:10150400031C852A862A8C2A3D08BF023E08031C38
:10151400C003C00201300310BE0CBD0CFF3E031D0E
:101524008D2A0130C202031D982A992A7C2A430875
:1015340003199D2A9E2AA32ABF09C009BF0A0319B9
:10154400C00A4008BE003F08BD0008008312031310
:10155400BA01B51FAE2AAF2AB62AB409B509B40A2E
:101564000319B50ABA01BA0AB71FB92ABA2AC32A93
:10157400B609B709B60A0319B70A0130B800380822
:10158400BA06BB01BC01340835040319CA2ACB2AA4
:10159400022BB901B90AD92A01300310B40DB50DD3
:1015A400FF3E031DCF2A0130B8003808B907B51F24
:1015B400DC2ADD2ACE2A01300310BB0DBC0DFF3E10
:1015C400031DDE2A35083702031DEA2A34083602D1
:1015D400031CED2AEE2AF52A3408B6023508031C4A
:1015E400B703B7023B1401300310B50CB40CFF3E33
:1015F400031DF62A0130B902031D012B022BDD2A3B
:101604003A080319062B072B0C2BBB09BC09BB0A90
:101614000319BC0A3C08B5003B08B40008007B0869
:1016240083120313A2007A08A1007D08F1007C084C
:10163400F0002208F3002108F2000A128A15792129
:101644000A128A15710883120313A2007008A100FC
:101654000130F8070318F90A0030F90721082204B9
:10166400031D352B362B172B780884008317791C20
:10167400831380010130F8020030031CF903F902DE
:101684007D08F1007C08F0007B08F3007A08F20082
:101694000A128A1503210A128A1570088312031389
:1016A400A0002008A3007D08F1007C08F0007B085E
:1016B400F3007A08F2000A128A1579210A128A15AF
:1016C4007108FB007008FA000A3083120313230226
:1016D400031C6D2B6E2B722B0730A0002008A30770
:1016E4003030A0002008A3072308A0007808840055
:1016F4008317791C8313200880000130F80200301E
:10170400031CF903F9027A087B04031D8A2B8B2B33
:10171400422B0130F8070318F90A0030F9070800D2
:10172400831203133F08C4003E08C3004108B500F8
:101734004008B4004408B7004308B6000A128A15EA
:10174400BD210A128A15831203133508C400340814
:10175400C3000130BC070318BD0A0030BD074308AD
:101764004404031DB62BB72B982B3C088400831725
:101774003D1C831380010130BC020030031CBD03F7
:10178400BD024108B5004008B4003F08B7003E0858
:10179400B6000A128A153D210A128A158312031310
:1017A4003408C2004208C5004108B5004008B4002E
:1017B4003F08B7003E08B6000A128A15BD210A1276
:1017C4008A15831203133508BF003408BE000A309B
:1017D4004502031CEE2BEF2BF32B0730C20042080B
:1017E400C5073030C2004208C5074508C2003C089E
:1017F400840083173D1C8313420880000130BC021F
:101804000030031CBD03BD023E083F04031D0B2C26
:101814000C2CC32B0130BC070318BD0A0030BD07D4
:1018240008000310831603136A0D6B0D8316031748
:101834009000100883160313ED006D08031D232C7C
:10184400242C2D2C0030EB000030EA000030E9009D
:101854000030E800AE2C6808831603179000831646
:1018640003136908831603179100831603136A0888
:10187400831603179200831603136B08831603174A
:1018840093001F300310930C920C910C900CFF3EAC
:10189400031D442C10089400140883160313EC0051
:1018A400EA17FF30E805FF30E905FF30EA050030AC
:1018B400EB059630ED02ED1F602C612C7F2C6D083A
:1018C400803A973E0318672C682C692C242C01302D
:1018D4000310EB0CEA0CE90CE80CFF3E031D6A2C28
:1018E4000130831603179000100883160313ED07C5
:1018F400031D7D2C7E2C692C9E2C20306D02031C34
:10190400842C852C992C242C0130831603179000E9
:10191400031083160313E80DE90DEA0DEB0D83168E
:101924000317900B8A2C013083160313ED026D0804
:10193400031D9D2C9E2C862C6C080319A22CA32C11
:10194400AE2CE809E909EA09EB09E80A0319E90AEE
:101954000319EA0A0319EB0A080083120313BC00F3
:101964003C080319B62CB72CCB2CB71FBA2CBB2CB4
:10197400CB2C3409BE003509BF003609C000370935
:10198400C100BE0A0319BF0A0319C00A0319C10A18
:10199400D32C3708C1003608C0003508BF0034080E
:1019A400BE003708360435043404031DDA2CDB2C5E
:1019B400E42C0030B7000030B6000030B500003031
:1019C400B4006A2D9630B8003808BD00F62C0130FA
:1019D400B8003808BD0701300310C10CC00CBF0C9F
:1019E400BE0CFF3E031DEE2CFE304105031DFB2CF7
:1019F400FC2CE92C182D0130B8003808BD07013043
:101A0400BE07003003180130BF070030031801304F
:101A1400C007003003180130C10701300310C10CA6
:101A2400C00CBF0CBE0CFF3E031D102DFF30410542
:101A3400031D1D2D1E2DFD2C2A2D0130BD0201304C
:101A4400B8000310BE0DBF0DC00DC10DB80B232D82
:101A5400C01B2D2D2E2D342D02303D020318332DA5
:101A6400342D1F2D3D18372D382D402DFF30BE0548
:101A7400FF30BF057F30C005FF30C1050310BD0C2A
:101A84003D08B800B901BA01BB0118300310B80D04
:101A9400B90DBA0DBB0DFF3E031D482D3808BE0419
:101AA4003908BF043A08C0043B08C1043C080319C0
:101AB4005C2D5D2D622DB71F602D612D622DC11728
:101AC4004108B7004008B6003F08B5003E08B4001E
:101AD4000800831603136F088039831603179000D8
:101AE40010089900831603136F08831603179000D8
:101AF400100791001108A00083160313EE1F832D15
:101B0400842D872D831603172014831603172008AA
:101B140003198D2D8E2DA12D200A031D922D932D99
:101B24009D2D003083160313EF000030EE000030CB
:101B3400ED000030EC000313EE17EF01AB2D003085
:101B440083160313EF000030EE000030ED00003088
:101B5400EC006B088039831603179000100899066F
:101B6400831603136B088316031790001007910064
:101B74001108A10083160313EA1FC12DC22DC52D20
:101B84008316031721148316031721080319CB2D79
:101B9400CC2DDF2D210A031DD02DD12DDB2D0030BE
:101BA40083160313EB000030EA000030E900003034
:101BB400E8000313EA17EB01E92D00308316031341
:101BC400EB000030EA000030E9000030E8006B0868
:101BD4006A0469046804031DF02DF12D0E2E0030F3
:101BE400EF000030EE000030ED000030EC008030FB
:101BF400EE047F30EF0483160317190890001008D1
:101C040083160313EF046F08EB006E08EA006D08F7
:101C1400E9006C08E800FF2F831603172008031D52
:101C2400142E152E202E003083160313EB000030E3
:101C3400EA000030E9000030E800FF2F200890009F
:101C4400910111089300210810029200031C9303D0
:101C540012087F3E9A0013080318013E003E9B00C1
:101C6400831603136F088316031798008316031350
:101C74006E08831603179700831603136D088316E3
:101C840003179600831603136C0883160317950035
:101C9400003083160313EF000030EE000030ED0037
:101CA4000030EC000030831603179F0000309E00C4
:101CB40000309D0000309C00A101DC2E2108031996
:101CC400642E652E8D2E013090000310950D960D17
:101CD400970D980D900B672E01309000031083161A
:101CE4000313EC0DED0DEE0DEF0D83160317900BA2
:101CF400702E9F1F7E2E7F2E822E831603136C144C
:101D0400013083160317900003109C0D9D0D9E0D4A
:101D14009F0D900B862E831603136B0883160317EF
:101D24001802031DAB2E831603136A0883160317C8
:101D34001702031DAB2E83160313690883160317BA
:101D44001602031DAB2E83160313680883160317AC
:101D54001502031CAE2EAF2ED82E1F1783160313A5
:101D64006808831603179502831603136908031C76
:101D7400690FBD2EC02E8316031796028316031314
:101D84006A08031C6A0FC72ECA2E8316031797020C
:101D9400831603136B08031C6B0FD12ED42E8316EA
:101DA4000317980283160313831603170130900058
:101DB4001008A1071A302102031CE12EE22E602E26
:101DC40018081704160415040319E92EEA2E132F14
:101DD4001C14132F0130831603179000031083166D
:101DE4000313EC0DED0DEE0DEF0D83160317900BA1
:101DF400F02E9F1FFE2EFF2E022F831603136C144A
:101E0400013083160317900003109C0D9D0D9E0D49
:101E14009F0D900B062FFF309A0703189B0AFF3083
:101E24009B0783160313EE1F182F192FEC2E83160E
:101E34000317A1019F1F1F2F202F402FFF301C05C8
:101E44009000FF301D059100FF301E0592007F3089
:101E54001F05930013081204110410040319332FEF
:101E6400342F392F83160317A101A10A402F83169B
:101E740003136C1C3E2F3F2F402F342F8316031760
:101E840021080319462F472F982F01308316031377
:101E9400EC07003003180130ED070030031801305F
:101EA400EE07003003180130EF076F1C5A2F5B2F29
:101EB400982F6C08831603179000831603136D087C
:101EC400831603179100831603136E0883160317F2
:101ED4009200831603136F088316031793000130CF
:101EE4009400130D930C920C910C900C940B732F83
:101EF400130883160313EF008316031712088316BF
:101F04000313EE0083160317110883160313ED0061
:101F140083160317100883160313EC00013083168D
:101F240003179A0703189B0A00309B0783160317AD
:101F34001B08803AFF0080307F02031DA32FFF306F
:101F44001A02031CA62FA72FB72FFF3083160317DF
:101F54009A0000309B00003083160313EF0000301A
:101F6400EE000030ED000030EC00831603171B0870
:101F7400803AFF0080307F02031DC22F01301A0215
:101F84000318C52FC62FD72F831603179A019B0159
:101F9400003083160313EF000030EE000030ED0034
:101FA4000030EC00831603179901831603171A08EF
:101FB40090001008A000201CE02FE12FE52F8316CD
:101FC4000313EE17EB2F7F309000100883160313D2
:101FD400EE0583160317200890000310100C9100DF
:101FE400110883160313EF008316031719089000D2
:101FF400100883160313EF04052E0800FF1B0A289C
:1020040083137F1883170008840A0319FF0A080042
:1020140010308A000408840A8207003453343134AF
:1020240020342034203420345334323420342034C7
:10203400203463346F346E3474342E3400342034DA
:02204400003466
:102E5E0064008001840A0406031900340406302F2E
:102E6E00831203138815273083120313B500F43031
:102E7E00B400B40B402FB50B402F00008312031388
:102E8E008811080019308316031399001815981627
:102E9E001812181383120313181698171813831683
:102EAE0003138C160B178B17080083120313B6002F
:102EBE000A128A15A4200A168A11831203133608E1
:102ECE008600881308110A168A1137270A168A11E6
:102EDE0008008C1E732F742F832F1A08AF00B001B9
:102EEE002F08AD003008AE000A128A1578200A1697
:102EFE008A11831203138C1233088A00320884005D
:102F0E00310E8300FE0E7E0E090083120313B700EE
:102F1E003708B5003508B6009C2F0130B5003508CE
:102F2E00B6070130B5003508B407340884000A1618
:102F3E008A110A200A168A11B5003608840035084F
:102F4E00831380000008031DAD2FAE2F942F0800B1
:102F5E00C62F3808FF00370884000A168A11002091
:102F6E000A168A110A128A11EA270A168A110130E4
:102F7E0083120313B7070318B80A0030B807831279
:102F8E0003133808FF00370884000A168A11002040
:102F9E000A168A11003A031DD52FD62FB02F08001E
:102FAE0083120313BC00B801B9013408B600B7018F
:102FBE003608BA003708BB003C1CE62FE72FED2F72
:102FCE003A08B8070318B90A3B08B90701300310CD
:102FDE00BA0DBB0DFF3E031DEE2F0310BC0C3C08BB
:102FEE00031DFA2FFB2FE32F3908B5003808B40064
:022FFE000800C9
:04400E00D4E0FFFFFC
:00000001FF
