:020000040000FA
:060000000A128A11F32F21
:10000800730872047104700403190B280C280E2855
:100018008030F3060800F100F0013A30710203184D
:10002800162817281F2830307102031C1C281D2889
:100038001F28F001F00A700C0800831203135508FA
:100048008039DA005A08E2005508DA005A07DB005E
:100058005B08E400D41F312832283328641464086C
:100068000319372838284828640A031D3C283D28E6
:1000780045280030D5000030D4000030D3000030CF
:10008800D200D417D50150280030D5000030D40054
:100098000030D3000030D20059088039DA005A08FD
:1000A800E3006308620603195A285B285C28621774
:1000B8005908DA005A07DB005B08E300D81F6528F7
:1000C800662867286314630803196B286C287C2842
:1000D800630A031D7028712879280030D900003080
:1000E800D8000030D7000030D600D817D9018428AE
:1000F8000030D9000030D8000030D7000030D600DA
:1001080064086302031889288A28CE28621F8D286C
:100118008E2892288030DA005A08E2066408DA004D
:100128005A08E5006308DA005A08E4006508DA00AE
:100138005A08E3005208DA005A08E5005608DA00BF
:100148005A08D2006508DA005A08D6005308DA00BF
:100158005A08E5005708DA005A08D3006508DA009B
:100168005A08D7005408DA005A08E5005808DA0097
:100178005A08D4006508DA005A08D8005508DA0089
:100188005A08E5005908DA005A08D5006508DA0067
:100198005A08D900E5016308DA00DB015B08DD00D5
:1001A80064085A02DC00031CDD035D08803AFF0086
:1001B80080307F02031DE2281A305C02031CE52808
:1001C800E6282329831203135508540453045204C0
:1001D800031DEF28F1280130F2280030DA005A0810
:1001E800E5000030D5000030D4000030D3000030E6
:1001F800D2006308DA005A08E4002B29651C052997
:1002080006290F296508DA0003105A0C0138DB00AB
:100218005B08E50011290310E50C521C1429152967
:100228001629E5170130DA00550DD50CD40CD30C7E
:10023800D20CDA0B18290130DA005A08E4078312C5
:10024800031363086402031C2A292B290229621B51
:100258002E292F297A296408031D332934293D2999
:100268000030D5000030D4000030D3000030D20078
:10027800A82A5608D207570803110318013E031984
:100288004629D307580803110318013E03194D29BD
:10029800D407590803110318013E03195429D50737
:1002A800551C572958292E2A651C5B295C29652964
:1002B8006508DA0003105A0C0138DB005B08E5001A
:1002C80067290310E50C521C6A296B296C29E5176C
:1002D8000130DA00550DD50CD40CD30CD20CDA0B46
:1002E8006E290130DA005A08E4072E2A5508803AA8
:1002F800FF005908803A7F02031D8C2958085402D0
:10030800031D8C2957085302031D8C2956085202D5
:1003180003188F299029E829FF30DA00FF30DB0025
:10032800FF30DC00FF30DD005608DE005708DF0034
:100338005808E0005908E1005208DE025308031C7F
:10034800530FA729A829DF025408031C540FAD290D
:10035800AE29E0025508031C550FB329B429E10260
:100368005E08DA075F0803185F0FBB29BC29DB07A3
:1003780060080318600FC129C229DC076108031847
:10038800610ADD075D08D5005C08D4005B08D3006E
:100398005A08D2008030DA005A08E206E509E50A70
:1003A8006508031DD829D929F6290130D20700305C
:1003B80003180130D307003003180130D407003088
:1003C80003180130D507F6295608D2025708031C2E
:1003D800570FD3025808031C580FD4025908031C9E
:1003E800590FD5025508540453045204031DFD291E
:1003F800FE292A2A6508031D022A032A2A2A003010
:10040800D5000030D4000030D3000030D200A82A34
:100418000130DA000310D20DD30DD40DD50DDA0B4F
:100428000E2AE51F182A192A1A2A5214651C1D2A91
:100438001E2A212A0314E50D232A0310E50D64085A
:100448000319272A282A2A2A0130E402D41F2D2A30
:100458002E2A0C2AE301E51F322A332A412A65088D
:100468007F390319382A392A3C2AE301E30A412A49
:10047800521C3F2A402A412A392A63080319452A6F
:10048800462A7A2A0130D207003003180130D307F0
:10049800003003180130D407003003180130D507A5
:1004A800551C572A582A7A2A5208DA005308DB00C2
:1004B8005408DC005508DD000130DE005D0DDD0C60
:1004C800DC0CDB0CDA0CDE0B622A5D08D5005C085C
:1004D800D4005B08D3005A08D200640A0319752AAD
:1004E800762A7A2A0130DA005A08E407640A0319DE
:1004F8007E2A7F2A842A6408031D832A842A922A52
:100508000030D5000030D4000030D3000030D200D5
:100518006408031D902A912A922AE201641C952AF4
:10052800962A982AD4179C2A7F30DA005A08D405CC
:100538006408DA0003105A0CDB005B08D500E21FE0
:10054800A62AA72AA82AD517080083160313400845
:10055800F3003F08F2003E08F1003D08F0000030CB
:10056800F7000030F6000030F5000030F4000A16FD
:100578008A1576240A128A110318C32AC42A6C2BF6
:1005880083160313400883120313D400831603133E
:100598003F0883120313D300831603133E08831204
:1005A8000313D200831603133D0883120313D100EB
:1005B8000A168A1109200A128A1183120313540891
:1005C800530452045104031DEA2AEB2A6C2B8316A8
:1005D80003133808803AFF0080307F02031DF62A93
:1005E80002303702031CF92AFA2A6C2B83160313EC
:1005F8003608F3003508F2003408F1003308F0003B
:100608004030F7008930F6007030F5005F30F400B4
:100618000A168A15E7250A128A110318142B152BB6
:100628001E2BF73083160313B7070318B80AFF30D9
:10063800B807262BF83083160313B7070318B80A30
:10064800FF30B80737080A128A1540210A128A11A2
:1006580083120313410883160313B600831203138E
:10066800400883160313B500831203133F0883164B
:100678000313B400831203133E0883160313B30055
:100688004008F3003F08F2003E08F1003D08F00082
:100698003608F7003508F6003408F5003308F4008A
:1006A8000A168A1185200A128A1173088316031301
:1006B800B2007208B1007108B0007008AF000030D5
:1006C800C0000030BF000030BE000030BD00F02B7D
:1006D80083160313400883120313D40083160313ED
:1006E8003F0883120313D300831603133E088312B3
:1006F8000313D200831603133D0883120313D1009A
:100708000A168A1109200A128A118312031354083F
:1007180083160313B20083120313530883160313BB
:10072800B10083120313520883160313B000831217
:100738000313510883160313AF003208F30031087E
:10074800F2003008F1002F08F00000300A168A1570
:1007580089260A128A11730883120313E9007208A2
:10076800E8007108E7007008E600831603134008E4
:1007780083120313ED00831603133F088312031338
:10078800EC00831603133E0883120313EB00831651
:1007980003133D0883120313EA000A168A15FD2283
:1007A8000A128A1183120313690883160313C000FF
:1007B80083120313680883160313BF0083120313FD
:1007C800670883160313BE00831203136608831693
:1007D8000313BD00B701B801C401C40A4408A50049
:1007E80001300310A50DFF3E031DF52B0310250D49
:1007F800693E84000A168A150A200A128A11A60080
:100808000A168A150A200A128A11A7000A168A15DA
:100818000A200A128A11A8000A168A150A200A1242
:100828008A11A90029083202031D242C2808310244
:10083800031D242C27083002031D242C26082F0210
:100848000318272C282C292C332C0130A500250827
:10085800C4070A304406031D322C332CF22B4408FB
:100868004107A50042080318420AA60037082507D1
:10087800A70038080318380A2607A8002708BB026B
:100888002808031CBC03BC024108420403194D2C70
:100898004E2C542CFF30BB070318BC0AFF30BC0792
:1008A80003303905A50000303A05A60025082604BE
:1008B80003195F2C602C662CFF30BB070318BC0A99
:1008C800FF30BC07391D692C6A2CB62C033039055A
:1008D800A50000303A05A600250826040319752C42
:1008E800762C952C2D30A500430884002508831309
:1008F80080000130A5002508C307952C30308316E9
:100908000313A500430884002508831380000130E1
:10091800A5002508C307FF30BB070318BC0AFF3032
:10092800BC073C08803AFF0080307F02031D9E2CE4
:1009380001303B020318A12CA22C822C432D20301D
:1009480083160313A5004308840025088313800039
:100958000130A5002508C307FF30BB070318BC0AF0
:10096800FF30BC073C08803AFF0080307F02031D3F
:10097800BF2C01303B020318C22CC32CA32C03301C
:10098800831603133905A50000303A05A60025088B
:1009980026040319D02CD12C432D2D30A500430853
:1009A80084002508831380000130A5002508C307AB
:1009B800432D4408A50001300310A50DFF3E031D7B
:1009C800E02C0310250D693E84000A168A150A20BA
:1009D8000A128A11F0000A168A150A200A128A11C8
:1009E800F1000A168A150A200A128A11F2000A165C
:1009F8008A150A200A128A11F3003208F700310812
:100A0800F6003008F5002F08F4000A168A15182594
:100A18000A128A11730883160313B6007208B50008
:100A28007108B4007008B3000030F3000030F20021
:100A38000030F1000A30F0003608F7003508F600FB
:100A48003408F5003308F4000A168A15C4240A127B
:100A58008A11730883160313B6007208B50071086B
:100A6800B4007008B3003308303EA5004308840082
:100A78002508831380000130A5002508C30701302D
:100A880083160313C402440A031D4B2D4C2DDD2C81
:100A9800602D303083160313A50043088400250811
:100AA800831380000130A5002508C307FF30B7076E
:100AB8000318B80AFF30B8073808803AFF008030BA
:100AC8007F02031D692D0130370203186C2D6D2D2F
:100AD8004D2D831603134208803AFF0080307F02B1
:100AE800031D782D09304102031C7B2D7C2D832D9D
:100AF800083083160313A5002508C400892D831622
:100B080003134108A5002508C4004408A500A60150
:100B18002508C1022608031CC203C202440803199F
:100B2800962D972DA22D2E30A50043088400250868
:100B3800831380000130A5002508C30744080A1262
:100B48008A1540210A128A11831203134108831659
:100B58000313AD0083120313400883160313AC007C
:100B6800831203133F0883160313AB008312031386
:100B78003E0883160313AA002D0883120313AB0043
:100B8800831603132C0883120313AA008316031376
:100B98002B0883120313A900831603132A08831250
:100BA8000313A80083160313400883120313A70036
:100BB800831603133F0883120313A6008316031337
:100BC8003E0883120313A500831603133D088312FE
:100BD8000313A4000A128A159F240A128A11831289
:100BE80003132708D4002608D3002508D2002408B8
:100BF800D1000A168A1109200A128A1183120313D6
:100C0800540883160313B200831203135308831680
:100C18000313B10083120313520883160313B000A1
:100C280083120313510883160313AF00BC2E440824
:100C3800A50001300310A50DFF3E031D1E2E031055
:100C4800250D693E84000A168A150A200A128A119F
:100C5800F0000A168A150A200A128A11F1000A16EB
:100C68008A150A200A128A11F2000A168A150A2021
:100C78000A128A11F3003208F7003108F60030082A
:100C8800F5002F08F4000A168A1518250A128A1189
:100C9800730883160313B6007208B5007108B40010
:100CA8007008B3000030F3000030F2000030F100AB
:100CB8000A30F0003608F7003508F6003408F50069
:100CC8003308F4000A168A15C4240A128A11730814
:100CD80083160313B6007208B5007108B4007008D3
:100CE800B3003308303EA500430884002508831369
:100CF80080000130A5002508C3074408A50001307D
:100D08000310A50DFF3E031D842E0310250D693E1B
:100D180084000A168A150A200A128A11F0000A1697
:100D28008A150A200A128A11F1000A168A150A2061
:100D38000A128A11F2000A168A150A200A128A1162
:100D4800F3003208F7003108F6003008F5002F08E4
:100D5800F4000A168A15C4240A128A117308831625
:100D68000313B2007208B1007108B0007008AF0038
:100D78000130C402440A031DC22EC32E1B2ED52ED9
:100D88003030A50043088400250883138000013013
:100D9800A5002508C307FF30C1070318C20AFF30A2
:100DA800C20741084204031DDA2EDB2EC42EDA2FB7
:100DB80041084204031DE12EE22EF02E32083104D0
:100DC80030042F04031DE92EEA2EF02E0130C1074E
:100DD8000318C20A0030C2074208803A803C031D4B
:100DE800F72E410844020318FA2EFB2E022F831611
:100DF80003134108A5002508C4001A2F83160313FE
:100E08004208803AA50080302502031D0D2F4408B2
:100E180041020318102F112F1A2F831603134408A9
:100E2800A500A6012508C1002608C20083160313E1
:100E38003B083C040319212F222F342F0330390596
:100E4800A50000303A05A6002508260403192D2F11
:100E58002E2F342FFF30BB070318BC0AFF30BC0706
:100E68003A1F372F382F532F4208803AA5003C08E5
:100E7800803A2502031D422F3B0841020318452FE3
:100E8800462F4F2F831603134108BB024208031C49
:100E9800BC03BC02532F83160313BB01BC013C08DF
:100EA800803A803C031D5A2F3B08440203185D2FEB
:100EB8005E2F6A2F831603134408A500A601250890
:100EC800BB022608031CBC03BC026E2F8316031347
:100ED800BB01BC01391D712F722FA72F03303905B3
:100EE800A50000303A05A6002508260403197D2F21
:100EF8007E2F892F2D30A5004308840025088313F1
:100F080080000130A5002508C3073B083C040319ED
:100F18008E2F8F2FDA2F3030A50043088400250844
:100F2800831380000130A5002508C307FF30BB07E5
:100F38000318BC0AFF30BC073B083C04031DA52F5F
:100F4800A62F8F2FDA2F3B083C040319AC2FAD2FA7
:100F5800C42F2030A500430884002508831380008F
:100F68000130A5002508C307FF30BB070318BC0ADA
:100F7800FF30BC073B083C04031DC32FC42FAD2F13
:100F880003303905A50000303A05A60025082604D7
:100F98000319CF2FD02FDA2F2D30A5004308840056
:100FA8002508831380000A168A11422D0130A007F4
:100FB800FF30200784000A168A150A200A128A11AF
:100FC800A5002508C4004408031DEB2FEE2F0A16C0
:100FD8008A11352D43088400831380010800831388
:100FE800C7308400DD300A168A1101200A128A11DE
:080FF80083010A168A15F62B8D
:10100C00F601F31F0A280B281228F209F309F20A39
:10101C000319F30AF601F60AF11F152816281B28E6
:10102C00F009F109F00A0319F10A700871040319A7
:10103C00202821285028F501F50A2F28013003100B
:10104C00F00DF10DFF3E031D25280130F40074084E
:10105C00F507F11F32283328242871087302031D69
:10106C00392870087202031C3C283D28432870085C
:10107C00F2027108031CF303F30201300310F10CAC
:10108C00F00CFF3E031D44280130F502031D4F28D0
:10109C005028332876080319542855285A28F20961
:1010AC00F309F20A0319F30A7308F1007208F0004D
:1010BC000800831203131F179F131F119F111F1278
:1010CC009F121F14831603139F171F129F12C730F2
:1010DC0083120313EE007228EE0B7128752883120D
:1010EC0003139F187A287B286D289F141E08EE0086
:1010FC00EF016E0883160313CB00831203136F08E2
:10110C0083160313CC004C0883120313EF008316D1
:10111C0003134B0883120313EE006E08EF00EE016D
:10112C006E0883160313CB00831203136F08831608
:10113C000313CC001E084B0783120313EE00831617
:10114C0003134C0803184C0A83120313EF006E08A8
:10115C0083160313CB00831203136F088316031338
:10116C00CC00443083120313C1008030C000003027
:10117C00BF000030BE004030A700A030A6000030F9
:10118C00A5000030A400831603134B08F0004C0894
:10119C00F1000030F11BFF30F200F30001300A16B1
:1011AC008A1589260A128A15730883120313AB0059
:1011BC007208AA007108A9007008A8000A128A1502
:1011CC009F240A128A15831203132708C5002608C8
:1011DC00C4002508C3002408C2000A168A11432142
:1011EC000A128A1583120313410883160313CA00CB
:1011FC0083120313400883160313C90083120313CD
:10120C003F0883160313C800831203133E0883168A
:10121C000313C7009C30F3008030F4000A168A15C3
:10122C0046230A128A15C0300A168A15BA220A12E7
:10123C008A15913083120313EE006E088316031384
:10124C00A0004A08A4004908A3004808A2004708C7
:10125C00A100CD300A168A112B250A128A15CD3021
:10126C00F3000030F4000A168A1546230A128A1578
:10127C006D28080083120313D000D01F462947297C
:10128C00F42AD009D00A5008803A123E031C4F2988
:10129C005029382A0A30F7000030F8005008F200C4
:1012AC00F301F21BF3036430F0000030F1000A127A
:1012BC008A1506200A128A157108FA007008F900BE
:1012CC000A168A157E250A128A15770883120313CB
:1012DC00C20001300310C20DFF3E031D7029031024
:1012EC00420D593E84000A168A150A200A128A15E4
:1012FC00C3000A168A150A200A128A15C4000A1697
:10130C008A150A200A128A15C5000A168A150A209F
:10131C000A128A15C6004608A7004508A60044080C
:10132C00A5004308A4006430F7000030F800500812
:10133C00F900FA01F91BFA030A168A157E250A121E
:10134C008A15770883120313C70001300310C70DE9
:10135C00FF3E031DAC290310470D7D3E84000A1689
:10136C008A150A200A128A15C8000A168A150A203C
:10137C000A128A15C9000A168A150A200A128A1539
:10138C00CA000A168A150A200A128A15CB004B08C5
:10139C00AB004A08AA004908A9004808A8000A128C
:1013AC008A159F240A128A15831203132708CF006B
:1013BC002608CE002508CD002408CC000A30F00009
:1013CC000030F1005008F200F301F21BF3030A1293
:1013DC008A1506200A128A15700883120313C2009C
:1013EC0001300310C20DFF3E031DF7290310420DFF
:1013FC00353E84000A168A150A200A128A15C30083
:10140C000A168A150A200A128A15C4000A168A15A9
:10141C000A200A128A15C5000A168A150A200A1211
:10142C008A15C6004608A7004508A6004408A50072
:10143C004308A4004F08AB004E08AA004D08A900B1
:10144C004C08A8000A128A159F240A128A158312C6
:10145C0003132708C1002608C0002508BF00240874
:10146C00BE009E2C5008803A753E031C3E2A3F2A33
:10147C00C72A0A30F0000030F1005008F200F301E6
:10148C00F21BF3030A128A1506200A128A15700839
:10149C0083120313C20001300310C20DFF3E031D63
:1014AC00522A0310420D353E84000A168A150A2072
:1014BC000A128A15C3000A168A150A200A128A15FE
:1014CC00C4000A168A150A200A128A15C5000A16C3
:1014DC008A150A200A128A15C6004608A700450874
:1014EC00A6004408A5004308A4000A30F700003009
:1014FC00F8005008F900FA01F91BFA030A168A15CC
:10150C007E250A128A15770883120313C70001304F
:10151C000310C70DFF3E031D8E2A0310470D593EC5
:10152C0084000A168A150A200A128A15C8000A169F
:10153C008A150A200A128A15C9000A168A150A2069
:10154C000A128A15CA000A168A150A200A128A1566
:10155C00CB004B08AB004A08AA004908A900480870
:10156C00A8000A128A159F240A128A1583120313E3
:10157C002708C1002608C0002508BF002408BE00AB
:10158C009E2C5008C20001300310C20DFF3E031DFB
:10159C00CA2A0310420D353E84000A168A150A2009
:1015AC000A128A15C3000A168A150A200A128A150D
:1015BC00C4000A168A150A200A128A15C5000A16D2
:1015CC008A150A200A128A15C6004608C100450869
:1015DC00C0004408BF004308BE009E2C5008803A4F
:1015EC00123E031CFA2AFB2AE32B0A30F7000030C8
:1015FC00F8005008F200F301F21BF3036430F00022
:10160C000030F1000A128A1506200A128A15710898
:10161C00FA007008F9000A168A157E250A128A1536
:10162C00770883120313C20001300310C20DFF3E72
:10163C00031D1B2B0310420D253E84000A168A1530
:10164C000A200A128A15C3000A168A150A200A12E1
:10165C008A15C4000A168A150A200A128A15C500B2
:10166C000A168A150A200A128A15C6004608A7000F
:10167C004508A6004408A5004308A4006430F70000
:10168C000030F8005008F900FA01F91BFA030A16A9
:10169C008A157E250A128A15770883120313C70050
:1016AC0001300310C70DFF3E031D572B0310470DD0
:1016BC00493E84000A168A150A200A128A15C800A7
:1016CC000A168A150A200A128A15C9000A168A15E2
:1016DC000A200A128A15CA000A168A150A200A124A
:1016EC008A15CB004B08AB004A08AA004908A90090
:1016FC004808A8000A128A159F240A128A15831218
:10170C0003132708CF002608CE002508CD00240897
:10171C00CC000A30F0000030F1005008F200F30168
:10172C00F21BF3030A128A1506200A128A15700896
:10173C0083120313C20001300310C20DFF3E031DC0
:10174C00A22B0310420D013E84000A168A150A20B2
:10175C000A128A15C3000A168A150A200A128A155B
:10176C00C4000A168A150A200A128A15C5000A1620
:10177C008A150A200A128A15C6004608A7004508D1
:10178C00A6004408A5004308A4004F08AB004E086F
:10179C00AA004D08A9004C08A8000A128A159F241B
:1017AC000A128A15831203132708C1002608C000E9
:1017BC002508BF002408BE009E2C5008803A753EB8
:1017CC00031CE92BEA2B722C0A30F0000030F100DC
:1017DC005008F200F301F21BF3030A128A150620DB
:1017EC000A128A15700883120313C2000130031009
:1017FC00C20DFF3E031DFD2B0310420D013E840064
:10180C000A168A150A200A128A15C3000A168A15A6
:10181C000A200A128A15C4000A168A150A200A120E
:10182C008A15C5000A168A150A200A128A15C600DE
:10183C004608A7004508A6004408A5004308A400D4
:10184C000A30F7000030F8005008F900FA01F91BD3
:10185C00FA030A168A157E250A128A15770883124E
:10186C000313C70001300310C70DFF3E031D392CB5
:10187C000310470D253E84000A168A150A200A1209
:10188C008A15C8000A168A150A200A128A15C90078
:10189C000A168A150A200A128A15CA000A168A150F
:1018AC000A200A128A15CB004B08AB004A08AA0082
:1018BC004908A9004808A8000A128A159F240A1290
:1018CC008A15831203132708C1002608C0002508B7
:1018DC00BF002408BE009E2C5008C200013003102B
:1018EC00C20DFF3E031D752C0310420D013E8400FA
:1018FC000A168A150A200A128A15C3000A168A15B6
:10190C000A200A128A15C4000A168A150A200A121D
:10191C008A15C5000A168A150A200A128A15C600ED
:10192C004608C1004508C0004408BF004308BE007B
:10193C0008008312031327088039AC002C08B1006F
:10194C002708AC002C07AD002D08B700A61FAF2C44
:10195C00B02CB12C371437080319B52CB62CC52C68
:10196C00370A031DBA2CBB2CC32C0030A700003047
:10197C00A6000030A5000030A400A617CD2C003026
:10198C00A7000030A6000030A5000030A4002B08F2
:10199C008039AC002C08B1062B08AC002C07AD002C
:1019AC002D08B600AA1FDB2CDC2CDD2C36143608D7
:1019BC000319E12CE22CF12C360A031DE62CE72C42
:1019CC00EF2C0030AB000030AA000030A900003032
:1019DC00A800AA17F92C0030AB000030AA00003088
:1019EC00A9000030A80036080319FD2CFE2C032D8D
:1019FC003708031D022D032D0C2D0030A7000030DD
:101A0C00A6000030A5000030A400FF2F2408AC0075
:101A1C002C08F0002A080A168A156C230A128A155B
:101A2C00710883120313BD007008BC003C08AC00A5
:101A3C00AD01AE01AF012F08B5002E08B4002D0882
:101A4C00B3002C08B2003D08AC00AD01AE01AF01F3
:101A5C002F08BB002E08BA002D08B9002C08B800BE
:101A6C002508AC002C08F00029080A168A156C23EE
:101A7C000A128A15710883120313BD007008BC008A
:101A8C003C08AC00AD01AE01AF012C08B2072D082B
:101A9C0003110318013E0319542DB3072E0803112B
:101AAC000318013E03195B2DB4072F08031103180B
:101ABC00013E0319622DB5073D08AC00AD01AE0126
:101ACC00AF012C08B8072D0803110318013E0319A8
:101ADC00702DB9072E0803110318013E0319772D39
:101AEC00BA072F0803110318013E03197E2DBB07FB
:101AFC002608AC002C08F00028080A168A156C235E
:101B0C000A128A15710883120313BD007008BC00F9
:101B1C003C08AC00AD01AE01AF012C08B2072D089A
:101B2C0003110318013E03199C2DB3072E08031152
:101B3C000318013E0319A32DB4072F080311031832
:101B4C00013E0319AA2DB5073D08AC00AD01AE014D
:101B5C00AF012C08B8072D0803110318013E031917
:101B6C00B82DB9072E0803110318013E0319BF2D18
:101B7C00BA072F0803110318013E0319C62DBB0722
:101B8C000830AC000310B20DB30DB40DB50DAC0B99
:101B9C00C82D2508AC002C08F00028080A168A1558
:101BAC006C230A128A15710883120313BD00700886
:101BBC00BC003C08AC003D08AD00AE01AF012C08E8
:101BCC00B2072D0803110318013E0319EE2DB307BC
:101BDC002E0803110318013E0319F52DB4072F0825
:101BEC0003110318013E0319FC2DB5072408AC00A2
:101BFC002C08F00029080A168A156C230A128A157B
:101C0C00710883120313BD007008BC003C08AC00C3
:101C1C003D08AD00AE01AF012C08B2072D08031131
:101C2C000318013E03191B2EB3072E0803110318CA
:101C3C00013E0319222EB4072F0803110318013E8D
:101C4C000319292EB5070830AC000310B20DB30DE3
:101C5C00B40DB50DAC0B2B2E2408AC002C08F000E9
:101C6C0028080A168A156C230A128A157108831221
:101C7C000313BD007008BC003C08AC003D08AD006F
:101C8C00AE01AF012C08B2072D0803110318013E59
:101C9C000319512EB3072E0803110318013E031923
:101CAC00582EB4072F0803110318013E03195F2E99
:101CBC00B5072508AC002C08F0002A080A168A156E
:101CCC006C230A128A15710883120313BD00700865
:101CDC00BC003C08AC003D08AD00AE01AF012C08C7
:101CEC00B8072D0803110318013E03197E2EB907FE
:101CFC002E0803110318013E0319852EBA072F086D
:101D0C0003110318013E03198C2EBB072608AC00E7
:101D1C002C08F00029080A168A156C230A128A1559
:101D2C00710883120313BD007008BC003C08AC00A2
:101D3C003D08AD00AE01AF012C08B8072D0803110A
:101D4C000318013E0319AB2EB9072E080311031813
:101D5C00013E0319B22EBA072F0803110318013ED6
:101D6C000319B92EBB072608AC002C08F0002A0872
:101D7C000A168A156C230A128A157108831203132A
:101D8C00BD007008BC003C08AC003D08AD00AE01C5
:101D9C00AF0108300310AC0DAD0DAE0DAF0DFF3E15
:101DAC00031DD02E2C08B8072D0803110318013E73
:101DBC000319E12EB9072E0803110318013E03196C
:101DCC00E82EBA072F0803110318013E0319EF2E52
:101DDC00BB073208AC003308AD003408AE00350840
:101DEC00AF0018300310AF0CAE0CAD0CAC0CFF3EBA
:101DFC00031DF82E2C08B8072D0803110318013EFB
:101E0C000319092FB9072E0803110318013E0319F2
:101E1C00102FBA072F0803110318013E0319172FAF
:101E2C00BB070830AC000310B20DB30DB40DB50DEB
:101E3C00AC0B192F37083607AC00AD01AD0D2C08D3
:101E4C00823EBC002D080318013EFF3EBD004B2F07
:101E5C000130AC000310B80DB90DBA0DBB0DAC0BB5
:101E6C00302FB51F3A2F3B2F3C2F38140130AC00CC
:101E7C000310B20DB30DB40DB50DAC0B3E2FFF30EE
:101E8C00BC070318BD0AFF30BD07BA1F4E2F4F2FDA
:101E9C002E2FB601B51F532F542F702FFF30320544
:101EAC00AC00FF303305AD00FF303405AE007F30A1
:101EBC003505AF002F082E042D042C040319672FB1
:101ECC00682F6B2FB601B60A702F381C6E2F6F2F30
:101EDC00702F682F36080319742F752FA62F013019
:101EEC00B807003003180130B9070030031801306F
:101EFC00BA07003003180130BB073B1C862F872F15
:101F0C00A62F3808AC003908AD003A08AE003B08E3
:101F1C00AF000130B0002F0DAF0CAE0CAD0CAC0C03
:101F2C00B00B912F2F08BB002E08BA002D08B9005A
:101F3C002C08B8000130BC070318BD0A0030BD07DF
:101F4C003D08803AFF0080307F02031DAF2FFF3029
:101F5C003C02031CB22FB32FBE2F7F30831203130E
:101F6C00BB008030BA000030B9000030B800F32F4D
:101F7C00831203133D08803AFF0080307F02031D5B
:101F8C00C92F01303C020318CC2FCD2FD92F003094
:101F9C0083120313BB000030BA000030B9000030CC
:101FAC00B800B101F32F831203133C08AC002C08CA
:101FBC00B700FF30B805FF30B9057F30BA050030E7
:101FCC00BB05371CEA2FEB2FEC2FBA173708AC00E8
:101FDC0003102C0CAD002D08BB003108AC002C08F4
:101FEC00BB043B08A7003A08A6003908A50038082E
:041FFC00A400080035
:1020020064008001840A04060319003404060228CD
:10201200031083120313530D540DD5005508DB0032
:102022005B08031D152816281F280030D400003035
:10203200D3000030D2000030D10084285108D500EE
:102042005208D6005308D7005408D8001F30031096
:10205200D80CD70CD60CD50CFF3E031D28285508EA
:10206200D9005908DA00D317FF30D105FF30D20565
:10207200FF30D3050030D4059630DB02DB1F422847
:1020820043285D285B08803A973E031849284A286E
:102092004B28162801300310D40CD30CD20CD10CCF
:1020A200FF3E031D4C280130D5005508DB07031DF8
:1020B2005B285C284B28742820305B02031C6228B2
:1020C20063286F2816280130D5000310D10DD20DD8
:1020D200D30DD40DD50B66280130DB025B08031D3E
:1020E2007328742864285A080319782879288428C0
:1020F200D109D209D309D409D10A0319D20A031981
:10210200D30A0319D40A08000310720D730DF800E4
:10211200780883120313A5002508031D912892282D
:102122009B280030F3000030F2000030F100003054
:10213200F00042290310760D770DF8007808A4000C
:102142002408031DA528A628A7289228F217FF30E5
:10215200F005FF30F105FF30F2050030F305F61708
:10216200FF30F405FF30F505FF30F6050030F705C6
:102172000030A3000030A2000030A1000030A00017
:102182007F30A502A0302407F8007808A50220308D
:10219200F8007808A4000130F8000310A00DA10D8A
:1021A200A20DA30DF80BCE2877087302031DE328B6
:1021B20076087202031DE32875087102031DE328E5
:1021C20074087002031CE628E728F6287408F00257
:1021D2007508031C750FF1027608031C760FF202D4
:1021E2007708031C770FF30220140130F800031064
:1021F200F00DF10DF20DF30DF80BF8280130A402E9
:10220200031D04290529CC28A51F082909292329EA
:102212002508803A9F3E03180F2910291129922878
:1022220001300310A30CA20CA10CA00CFF3E031D55
:1022320012290130F8007808A507031D2129222957
:1022420011293A2920302502031C28292929352958
:1022520092280130F8000310A00DA10DA20DA30DCC
:10226200F80B2C290130A5022508031D39293A292A
:102272002A292308F3002208F2002108F10020088D
:10228200F00008008312031345088039C60046088F
:10229200CF004508C6004607C7004708D600C41F3E
:1022A20053295429552956145608031959295A29CC
:1022B2006A29560A031D5E295F2967290030C50075
:1022C2000030C4000030C3000030C200C417C50192
:1022D20072290030C5000030C4000030C300003055
:1022E200C20041088039C6004608CF064108C60030
:1022F2004607C7004708D700C01F802981298229C5
:10230200571457080319862987299729570A031D45
:102312008B298C2994290030C1000030C000003084
:10232200BF000030BE00C017C1019F290030C100AC
:102332000030C0000030BF000030BE004108400441
:102342003F043E04031DA629A729C0290030C50069
:102352000030C4000030C3000030C2008030C4042A
:102362007F30C5044F08C6004608C5044508C100B1
:102372004408C0004308BF004208BE001F2B560895
:10238200031DC429C529CE290030C1000030C00078
:102392000030BF000030BE001F2B5608C600C70128
:1023A2004708C90057084602C800031CC903480869
:1023B2007F3ED00049080318013E003ED100450887
:1023C200CE004408CD004308CC004208CB000030C8
:1023D200C5000030C4000030C3000030C20000302D
:1023E200D5000030D4000030D3000030D200D70135
:1023F200442A57080319FE29FF291F2A0130C60063
:102402000310CB0DCC0DCD0DCE0DC60B012A013024
:10241200C6000310C20DC30DC40DC50DC60B0A2A9A
:10242200D51F142A152A162A42140130C600031099
:10243200D20DD30DD40DD50DC60B182A41084E026C
:10244200031D2D2A40084D02031D2D2A3F084C0270
:10245200031D2D2A3E084B02031C302A312A402A32
:1024620055173E08CB023F08031C3F0FCC02400821
:10247200031C400FCD024108031C410FCE02013064
:10248200C6004608D7071A305702031C492A4A2AAF
:10249200FA294E084D044C044B040319512A522ABE
:1024A200712A5214712A0130C6000310C20DC30DE5
:1024B200C40DC50DC60B562AD51F602A612A622A91
:1024C20042140130C6000310D20DD30DD40DD50D28
:1024D200C60B642AFF30D0070318D10AFF30D10798
:1024E200C41F742A752A542AD701D51F792A7A2A39
:1024F200962AFF305205C600FF305305C700FF3051
:102502005405C8007F305505C900490848044704EE
:10251200460403198D2A8E2A912AD701D70A962AB0
:10252200421C942A952A962A8E2A570803199A2A17
:102532009B2ACC2A0130C207003003180130C3079E
:10254200003003180130C407003003180130C507FA
:10255200451CAC2AAD2ACC2A4208C6004308C70053
:102562004408C8004508C9000130CA00490DC90C19
:10257200C80CC70CC60CCA0BB72A4908C5004808C4
:10258200C4004708C3004608C2000130D007031840
:10259200D10A0030D1075108803AFF0080307F0213
:1025A200031DD52AFF305002031CD82AD92AE72A54
:1025B200FF3083120313D0000030D1000030C50079
:1025C2000030C4000030C3000030C2008312031385
:1025D2005108803AFF0080307F02031DF22A013049
:1025E20050020318F52AF62A032B83120313D00193
:1025F200D1010030C5000030C4000030C3000030FB
:10260200C200CF01831203135008C6004608D60049
:10261200561C0C2B0D2B0F2BC417132B7F30C6000F
:102622004608C4055608C6000310460CC7004708F2
:10263200C5004F08C6004608C504B7290800831222
:102642000313D1006E305102031C282B292B362C88
:102652003F30A7000030A6000030A5000030A400E3
:102662006430F6000030F7005108C200C30142088E
:10267200F8004308F9000A168A1532240A168A114C
:10268200760883120313C40001300310C40DFF3E09
:10269200031D462B0310440D7D3E84000A168A1545
:1026A2000A200A168A11C5000A168A150A200A1675
:1026B2008A11C6000A168A150A200A168A11C7004C
:1026C2000A168A150A200A168A11C8004808AB00A1
:1026D2004708AA004608A9004508A8000A128A1558
:1026E2009F240A168A11831203132708D000260892
:1026F200CF002508CE002408CD000A30F6000030B5
:10270200F7005108C200C3014208F2004308F30077
:102712006430F0000030F1000A168A15BC230A1654
:102722008A117108F9007008F8000A168A15322415
:102732000A168A11760883120313C40001300310AB
:10274200C40DFF3E031DA02B0310440D593E84000F
:102752000A168A150A200A168A11C5000A168A154F
:102762000A200A168A11C6000A168A150A200A16B3
:102772008A11C7000A168A150A200A168A11C80089
:102782004808A7004708A6004608A5004508A40077
:102792005008AB004F08AA004E08A9004D08A80037
:1027A2000A128A159F240A168A1183120313270814
:1027B200CC002608CB002508CA002408C9000A302C
:1027C200F0000030F1005108C200C3014208F200DB
:1027D2004308F3000A168A15BC230A168A117008E8
:1027E20083120313C40001300310C40DFF3E031D06
:1027F200F52B0310440D353E84000A168A150A2073
:102802000A168A11C5000A168A150A200A168A11A2
:10281200C6000A168A150A200A168A11C7000A1665
:102822008A150A200A168A11C8004808A700470814
:10283200A6004608A5004508A4004C08AB004B08BA
:10284200AA004A08A9004908A8000A128A159F246A
:102852000A168A11831203132708C1002608C00032
:102862002508BF002408BE002A2D0B305102031C8C
:102872003B2C3C2CE72C3F30A7000030A600003058
:10288200A5000030A4000A30F6000030F70051081D
:10289200C200C3014208F8004308F9000A168A156B
:1028A20032240A168A11760883120313C4000130F7
:1028B2000310C40DFF3E031D592C0310440D593E55
:1028C20084000A168A150A200A168A11C5000A16F9
:1028D2008A150A200A168A11C6000A168A150A20C3
:1028E2000A168A11C7000A168A150A200A168A11C0
:1028F200C8004808AB004708AA004608A9004508D6
:10290200A8000A128A159F240A168A118312031339
:102912002708D0002608CF002508CE002408CD00C5
:102922000A30F0000030F1005108C200C301420831
:10293200F2004308F3000A168A15BC230A168A110C
:10294200700883120313C40001300310C40DFF3E4C
:10295200031DA62C0310440D353E84000A168A1569
:102962000A200A168A11C5000A168A150A200A16B2
:102972008A11C6000A168A150A200A168A11C70089
:102982000A168A150A200A168A11C8004808A700E2
:102992004708A6004608A5004508A4005008AB0059
:1029A2004F08AA004E08A9004D08A8000A128A156D
:1029B2009F240A168A11831203132708C1002608CE
:1029C200C0002508BF002408BE002A2D3F30A70002
:1029D2000030A6000030A5000030A4005108C2005B
:1029E20001300310C20DFF3E031DF22C0310420DF5
:1029F200353E84000A168A150A200A168A11C30077
:102A02000A168A150A200A168A11C4000A168A159D
:102A12000A200A168A11C5000A168A150A200A1601
:102A22008A11C6004608AB004508AA004408A9005E
:102A32004308A8000A128A159F240A168A118312D3
:102A420003132708C1002608C0002508BF00240878
:102A5200BE00080083160313C300A130A500250899
:102A6200AE000A128A11DA2F2530440603193A2DD4
:102A72003B2D472D4408A5004308840025088313F5
:102A820080000130A5002508C307322DBB01BC011F
:102A9200B901BA01512D39150130A5002508A00749
:102AA200200884000A168A150A200A168A11A5002F
:102AB200A6012608003A03195F2D642D2508303A35
:102AC20003194C2D642D200884000A168A150A2049
:102AD2000A168A110A128A110F200A168A11031C79
:102AE200732D742DB42D83160313BB01BC010A3060
:102AF200F0000030F100831603133C08F3003B089A
:102B0200F2000A168A1521230A168A117108831601
:102B12000313BC007008BB00200884000A168A1543
:102B22000A200A168A11D03EA500FF300318003091
:102B3200A6002508BB070318BC0A2608BC070130FB
:102B4200A5002508A007200884000A168A150A2075
:102B52000A168A110A128A110F200A168A110318FC
:102B6200B32DB42D782D83160313200884000A1682
:102B72008A150A200A168A112E3A031DC12DC22D6A
:102B8200072E3A170130A5002508A007C101C2018E
:102B9200F62D0A30F0000030F100831603134208CC
:102BA200F3004108F2000A168A1521230A168A1137
:102BB200710883160313C2007008C1002008840044
:102BC2000A168A150A200A168A11D03EA500FF307D
:102BD20003180030A6002508C1070318C20A2608F8
:102BE200C2070130A5002508A007200884000A16A4
:102BF2008A150A200A168A110A128A110F200A1649
:102C02008A110318052E062ECA2D0D2EC101C201EE
:102C12003A160D2E3A15292E013083160313A007FA
:102C2200FF30200784000A168A150A200A168A1124
:102C3200C400A500A6012608003A0319212E322D50
:102C42002508003A0319FD2F663A03190B2E322D7F
:102C520000303905A50007303A05A60025082604EC
:102C62000319342E372E0A128A11DC2E3A1E3A2EFE
:102C72003B2E3F2E0630C1000030C2002E088400D9
:102C820083130008BD00840A0008BE00840A0008FD
:102C9200BF00840A0008C0000430A5002508AE0762
:102CA2004008F3003F08F2003E08F1003D08F00042
:102CB2000030F7000030F6000030F5000030F4007C
:102CC2000A168A15E7250A168A110318692E6A2E32
:102CD200872E831603134008F3003F08F2003E08D4
:102CE200F1003D08F0000A128A1104200A168A1126
:102CF200730883160313C0007208BF007108BE0078
:102D02007008BD000330B9040030BA0483160313FF
:102D1200B701B8014008F3003F08F2003E08F10095
:102D22003D08F0000030F7000030F6000030F500FA
:102D32000030F4000A168A1576240A168A1103183E
:102D4200A32EA42E942F0310831603133F0D400DC0
:102D5200823EB700FF3003180030B800FF30B707DB
:102D62000318B80AFF30B8070330F0000030F10052
:102D72003808F3003708F2000A168A1521230A16CA
:102D82008A11710883160313B8007008B7000A305D
:102D9200F7000030F8003808FA003708F9000A1680
:102DA2008A157E250A168A11780883160313B8003D
:102DB2007708B700B81FDE2EDF2EE52EFF30B707EB
:102DC2000318B80AFF30B8073703FF3A0A128A1508
:102DD20040210A168A118312031341088316031332
:102DE200B60083120313400883160313B50083123F
:102DF20003133F0883160313B400831203133E0820
:102E020083160313B300400883120313A70083162B
:102E120003133F0883120313A600831603133E080D
:102E220083120313A500831603133D0883120313B1
:102E3200A40083160313360883120313AB00831610
:102E42000313350883120313AA00831603133408ED
:102E520083120313A9008316031333088312031387
:102E6200A8000A128A159F240A168A1183120313D4
:102E7200270883160313B60083120313260883164A
:102E82000313B50083120313250883160313B4003A
:102E920083120313240883160313B3003608F300C6
:102EA2003508F2003408F1003308F0003F30F70033
:102EB2008030F6000030F5000030F4000A168A1562
:102EC200E7250A168A110318672F682F712FFF3022
:102ED20083160313B7070318B80AFF30B807942FF5
:102EE200831603133608F3003508F2003408F100A4
:102EF2003308F0004130F7002030F6000030F500D2
:102F02000030F4000A168A15E7250A168A11031CF6
:102F12008B2F8C2F942F013083160313B7070318BE
:102F2200B80A0030B807831603134208803AFF003C
:102F320080307F02031D9F2F0D3041020318A22F04
:102F4200A32FEA2F8316031341080A168A1120239E
:102F52000A168A11831203134108D5004008D400CF
:102F62003F08D3003E08D2008316031340088312A1
:102F72000313D900831603133F0883120313D800E7
:102F8200831603133E0883120313D7008316031319
:102F92003D0883120313D6000A128A1121200A1651
:102FA2008A1183120313550883160313C000831278
:102FB2000313540883160313BF0083120313530829
:102FC20083160313BE0083120313520883160313DE
:102FD200BD00831603133808803AFF0080307F0259
:102FE200031DF52F0A3037020318FA2F0A128A112D
:102FF200A92A0A128A11FA2A0A128A11EE2FFF1B33
:103002000A2883137F1883170008840A0319FF0A0A
:10301200080018308A000408840A82070034003449
:10302200003480343F3400340034203441340034DE
:103032000034C8344234003400347A344434003426
:1030420040341C34463400345034C33447340034E2
:103052002434743449348034963418344B34203454
:10306200BC34BE344C3428346B346E344E34F934B0
:10307200023415345034EC347834AD346034CA340C
:10308200F234493471340034003480343F34CD3466
:10309200CC34CC343D340A34D73423343C346F340A
:1030A200123483343A341734B734D1343834AC342C
:1030B200C53427343734BD34373486343534953407
:1030C200BF34D63433347734CC342B3432345F3497
:1030D200703489343034FF34E634DB342E3408342F
:1030E200E5343C341E3460344234A2340D340134AD
:1030F2000034003400340A340034003400346434C0
:10310200003400340034E834033400340034103422
:10311200273400340034A03486340134003440347F
:1031220042340F34003480349634983400340034FE
:10313200E134F53405340034CA349A343B34413432
:103142004434433420342534303434342E3432344D
:1031520066340034483445344C344C344F340034F3
:103556008312031307172730F100F530F000F00B44
:10356600B22AF10BB22A8312031307130800F200E2
:103576000A168A1593230A168A15720883120313EC
:103586008600071287120A168A15AB220A168A15B2
:103596000800F2000A168A1593230A168A1572087D
:1035A600831203138600071687120A168A15AB22A2
:1035B6000A168A15080038300A168A15BA220A161B
:1035C6008A150C300A168A15BA220A168A1501308F
:1035D6000A168A15BA220A168A1506300A168A1596
:1035E600BA220A168A1580300A168A15BA220A16CF
:1035F6008A150800803083120313E9066D08D5008A
:103606006C08D4006B08D3006A08D2006908D90098
:103616006808D8006708D7006608D6000A128A111B
:1036260021200A168A15831203135508E900540847
:10363600E8005308E7005208E6000800F401F50127
:10364600701C262B272B2D2B7208F4070318F50A5E
:103656007308F50701300310F20DF30DFF3E031D4D
:103666002E2B01300310F10CF00CFF3E031D352B01
:1036760070087104031D402B412B232B7508F100A4
:103686007408F00008005B2B7408FF0073088400C0
:103696000A168A1500200A168A150A168A15CC22D9
:1036A6000A168A150130F3070318F40A0030F407E6
:1036B600740883120313FF00730884000A168A1520
:1036C60000200A168A15003A031D6A2B6B2B472B1E
:1036D6000800F800F401F5017008F200F301720821
:1036E600F6007308F700781C792B7A2B802B760866
:1036F600F4070318F50A7708F50701300310F60DED
:10370600F70DFF3E031D812B0310F80C7808031DEF
:103716008D2B8E2B762B7508F1007408F0000800AF
:10372600FF308312031386008030F0007008860590
:103736000712871607132730F100F530F000F00B5B
:10374600A22BF10BA22B8312031307178030060658
:10375600031DAE2BAF2BBB2B07132730F100F53023
:10376600F000F00BB42BF10BB42B831203130717E5
:103776000800700871040319C12BC22BF12BF50147
:10378600F50AD02B01300310F00DF10DFF3E031D9D
:10379600C62B0130F4007408F507F11FD32BD42B88
:1037A600C52B71087302031DDA2B70087202031C05
:1037B600DD2BDE2BE42B7008F2027108031CF303E9
:1037C600F30201300310F10CF00CFF3E031DE52B54
:1037D6000130F502031DF02BF12BD42B7308F100F9
:1037E6007208F00008000930831603178800890163
:1037F6000930831603138500860187018801890134
:1038060083120313850186018701880189018316C6
:1038160003130F088F3960388F008F110F118F1027
:103826000F140A168A15DE220A168A150A128A1536
:103836005F200A168A1500300A168A15BA220A1659
:103846008A15823083160313C600DD30C500C50B0A
:103856002A2CC60B2A2C1E2C0A128A110028FB01C0
:10386600FC01760877040319392C3A2C712CFD01DA
:10387600FD0A482C01300310F60DF70DFF3E031D1F
:103886003E2C0130FA007A08FD07F71F4B2C4C2C12
:103896003D2C01300310FB0DFC0DFF3E031D4D2C8E
:1038A60077087902031D592C76087802031C5C2CD4
:1038B6005D2C642C7608F8027708031CF903F902DC
:1038C6007B1401300310F70CF60CFF3E031D652C2C
:1038D6000130FD02031D702C712C4C2C7C08F70066
:1038E6007B08F600080000307005F800003071050E
:1038F600F90080307205FA007F307305FB007B0803
:103906007A0479047804031D892C8A2C922C0030C1
:10391600F3000030F2000030F1000030F00000301B
:103926007405F80000307505F90080307605FA0058
:103936007F307705FB007B087A0479047804031D41
:10394600A52CA62CAE2C0030F7000030F600003077
:10395600F5000030F40077087306031DBC2C7608CA
:103966007206031DBC2C75087106031DBC2C740859
:1039760070060319BF2CC02CC22C0310C32C0314D1
:10398600080073087204710470040319CB2CCC2C44
:103996000F2DF901F90ADC2C0130F8000310F00DA7
:1039A600F10DF20DF30DF80BD12C0130F80078086B
:1039B600F907F31FDF2CE02CCF2C73087702031DC9
:1039C600EE2C72087602031DEE2C71087502031D9B
:1039D600EE2C70087402031CF12CF22C002D7008DA
:1039E600F4027108031C710FF5027208031C720FB2
:1039F600F6027308031C730FF70201300310F30C71
:103A0600F20CF10CF00CFF3E031D012D0130F90202
:103A1600031D0E2D0F2DE02C7708F3007608F2001B
:103A26007508F1007408F00008000030FC00003052
:103A3600FB000030FA000030F900730872047104CC
:103A460070040319272D282D752DFD01FD0A382D2B
:103A56000130F8000310F00DF10DF20DF30DF80B27
:103A66002D2D0130F8007808FD07F31F3B2D3C2D66
:103A76002B2D0130F8000310F90DFA0DFB0DFC0D8E
:103A8600F80B3E2D73087702031D532D720876023C
:103A9600031D532D71087502031D532D7008740202
:103AA600031C562D572D662D7008F4027108031C51
:103AB600710FF5027208031C720FF6027308031CDD
:103AC600730FF702791401300310F30CF20CF10CAA
:103AD600F00CFF3E031D672D0130FD02031D742D02
:103AE600752D3C2D7C08F3007B08F2007A08F10066
:103AF6007908F000080083120313A101F81F842D32
:103B0600852D8C2DF709F809F70A0319F80AA10182
:103B1600A10AFA1F8F2D902D992DF909FA09F90A94
:103B26000319FA0A0130FB007B08A106A201A301D2
:103B3600770878040319A02DA12DD82DA001A00A7D
:103B4600AF2D01300310F70DF80DFF3E031DA52D17
:103B56000130FB007B08A007F81FB22DB32DA42D62
:103B660001300310A20DA30DFF3E031DB42D7808EE
:103B76007A02031DC02D77087902031CC32DC42DBC
:103B8600CB2D7708F9027808031CFA03FA022214EF
:103B960001300310F80CF70CFF3E031DCC2D01304D
:103BA600A002031DD72DD82DB32D21080319DC2D16
:103BB600DD2DE22DA209A309A20A0319A30A2308EF
:103BC600F8002208F700080000307005F800003001
:103BD6007105F90080307205FA007F307305FB002D
:103BE6007B087A0479047804031DFA2DFB2D032E35
:103BF6000030F3000030F2000030F1000030F00039
:103C060000307405F80000307505F900803076053F
:103C1600FA007F307705FB007B087A047904780484
:103C2600031D162E172E1F2E0030F7000030F6004B
:103C36000030F5000030F400F31F222E232E472E0D
:103C46000030F8000030F9000030FA008030FB0048
:103C56007008F8027108031C710F322E332EF90218
:103C66007208031C720F382E392EFA027308031CD1
:103C7600730F3E2E3F2EFB027B08F3007A08F200FC
:103C86007908F1007808F000F71F4A2E4B2E6F2EA8
:103C96000030F8000030F9000030FA008030FB00F8
:103CA6007408F8027508031C750F5A2E5B2EF9026C
:103CB6007608031C760F602E612EFA027708031C25
:103CC600770F662E672EFB027B08F7007A08F60050
:103CD6007908F5007808F4008030F3068030F7069E
:103CE60077087302031D812E76087202031D812E4A
:103CF60075087102031D812E740870020318842E44
:103D0600852E872E0310882E03140800F8007808E5
:103D160003198E2E8F2EA32EF31F922E932EA32ED3
:103D26007009FA007109FB007209FC007309FD00B5
:103D3600FA0A0319FB0A0319FC0A0319FD0AAB2E3A
:103D46007308FD007208FC007108FB007008FA0099
:103D56007308720471047004031DB22EB32EBC2EB8
:103D66000030F3000030F2000030F1000030F000C7
:103D7600422F9630F4007408F900CE2E0130F4007C
:103D86007408F90701300310FD0CFC0CFB0CFA0C4F
:103D9600FF3E031DC62EFE307D05031DD32ED42EF9
:103DA600C12EF02E0130F4007408F9070130FA072D
:103DB600003003180130FB07003003180130FC0700
:103DC600003003180130FD0701300310FD0CFC0C18
:103DD600FB0CFA0CFF3E031DE82EFF307D05031D8C
:103DE600F52EF62ED52E022F0130F9020130F40001
:103DF6000310FA0DFB0DFC0DFD0DF40BFB2EFC1B49
:103E0600052F062F0C2F0230790203180B2F0C2FCB
:103E1600F72E79180F2F102F182FFF30FA05FF30C5
:103E2600FB057F30FC05FF30FD050310F90C790812
:103E3600F400F501F601F70118300310F40DF50D45
:103E4600F60DF70DFF3E031D202F7408FA047508C2
:103E5600FB047608FC047708FD0478080319342F60
:103E6600352F3A2FF31F382F392F3A2FFD177D089C
:103E7600F3007C08F2007B08F1007A08F0000800E5
:103E86007008F8007108F9007208FA000310790D3D
:103E96007A0DFB007B0883120313A5002508031D7A
:103EA600552F562F5F2F0030F3000030F200003000
:103EB600F1000030F000FF2F7408F8007508F900D3
:103EC6007608FA000310790D7A0DFB007B08A40032
:103ED6002408031D6F2F702F712F562FF117FF30F7
:103EE600F005FF30F1050030F205F517FF30F40557
:103EF600FF30F5050030F6050030A3000030A200C3
:103F06000030A1000030A0007F30A50298302407C1
:103F1600F8007808A5021830F8007808A4000130E7
:103F2600F8000310A00DA10DA20DA30DF80B942F00
:103F360076087202031DA52F75087102031DA52FB1
:103F460074087002031CA82FA92FB42F7408F0025E
:103F56007508031C750FF1027608031C760AF20237
:103F6600201401300310F00DF10DF20DFF3E031D7C
:103F7600B52F0130A402031DC12FC22F922FA51FFA
:103F8600C52FC62FE02F2508803A973E0318CC2F61
:103F9600CD2FCE2F562F01300310A30CA20CA10C4F
:103FA600A00CFF3E031DCF2F0130F8007808A507AF
:103FB600031DDE2FDF2FCE2FF72F18302502031C0F
:103FC600E52FE62FF22F562F0130F8000310A00D33
:103FD600A10DA20DA30DF80BE92F0130A5022508AE
:103FE600031DF62FF72FE72F2308F3002208F20010
:0A3FF6002108F1002008F000080087
:04400E00D4E0FFFFFC
:00000001FF
