:020000040000FA
:100000000A128A11EB2FFF1B0D2883137F18831709
:100010000008840A0319FF0A080000308A00040857
:10002000840A82070034533431342034203420349D
:1000300020345334323420342034203463346F3449
:100040006E3474342E34003420340034831203139D
:10005000A3007908A1007808A0007B08F1007A08C5
:10006000F0002108F3002008F2000A128A151D256D
:100070000A128A11710883120313A1007008A000EC
:100080000130FC007C08A30720082104031D492837
:100090004A282D2823088400831380010130A302FD
:1000A0007B08F1007A08F0007908F3007808F20084
:1000B0000A128A15A7240A128A117008FC007C080B
:1000C00083120313A2007B08F1007A08F00079087C
:1000D000F3007808F2000A128A151D250A128A1107
:1000E0007108F9007008F8000A3083120313220225
:1000F000031C7B287C2880280730FC007C08A20792
:100100003030FC007C08A2072208FC002308840091
:100110007C08831380000130A30278087904031D52
:100120009228932850280130FC007C08A30708007F
:100130000310831203133C0D3D0DBE003E08C400A6
:100140004408031DA428A528AE280030BD000030B7
:10015000BC000030BB000030BA0013293A08BE00D2
:100160003B08BF003C08C0003D08C1001F30031021
:10017000C10CC00CBF0CBE0CFF3E031DB7283E08CF
:10018000C2004208C300BC17FF30BA05FF30BB05F0
:10019000FF30BC050030BD059630C402C41FD12815
:1001A000D228EC284408803A973E0318D828D9284A
:1001B000DA28A52801300310BD0CBC0CBB0CBA0C0E
:1001C000FF3E031DDB280130BE003E08C407031DAF
:1001D000EA28EB28DA28032920304402031CF128FE
:1001E000F228FE28A5280130BE000310BA0DBB0D71
:1001F000BC0DBD0DBE0BF5280130C4024408031D23
:1002000002290329F3284308031907290829132978
:10021000BA09BB09BC09BD09BA0A0319BB0A03190B
:10022000BC0A0319BD0A0800F80078080319192947
:100230001A292E29F31F1D291E292E297009FA00BB
:100240007109FB007209FC007309FD00FA0A031929
:10025000FB0A0319FC0A0319FD0A36297308FD007D
:100260007208FC007108FB007008FA007308720441
:1002700071047004031D3D293E2947290030F30015
:100280000030F2000030F1000030F000CD2996304F
:10029000F4007408F90059290130F4007408F907D2
:1002A00001300310FD0CFC0CFB0CFA0CFF3E031D8F
:1002B0005129FE307D05031D5E295F294C297B29CC
:1002C0000130F4007408F9070130FA070030031810
:1002D0000130FB07003003180130FC070030031821
:1002E0000130FD0701300310FD0CFC0CFB0CFA0C77
:1002F000FF3E031D7329FF307D05031D80298129E1
:1003000060298D290130F9020130F4000310FA0D43
:10031000FB0DFC0DFD0DF40B8629FC1B902991298A
:10032000972902307902031896299729822979188A
:100330009A299B29A329FF30FA05FF30FB057F305E
:10034000FC05FF30FD050310F90C7908F400F501F8
:10035000F601F70118300310F40DF50DF60DF70D49
:10036000FF3E031DAB297408FA047508FB047608E8
:10037000FC047708FD0478080319BF29C029C529A2
:10038000F31FC329C429C529FD177D08F3007C0884
:10039000F2007B08F1007A08F000080083120313D2
:1003A0001F179F131F14831603139F131F129F12EF
:1003B0000130F3008030F4000A128A15FD230A127E
:1003C0008A11C73083120313D400E629D40BE52920
:1003D000E929831203131F119F111F129F121F146B
:1003E0009F140C131E08D4005408EF004330BD00C6
:1003F0007F30BC000030BB000030BA004030A300AA
:10040000A030A2000030A1000030A0006F08D4008E
:10041000D501D601D7015708F3005608F200550858
:10042000F1005408F00001300A128A1114210A1256
:100430008A11730883120313A7007208A6007108BB
:10044000A5007008A4000A128A118A240A128A11CF
:10045000831203132308C1002208C0002108BF0033
:100460002008BE000A128A1523260A128A11831256
:1004700003133D08DD003C08DC003B08DB003A08C4
:10048000DA005D08A7005C08A6005B08A5005A0812
:10049000A4004230A300C830A2000030A100003008
:1004A000A0000A128A118A240A128A1183120313E5
:1004B0002308BD002208BC002108BB002008BA00A8
:1004C0000A128A1198200A128A11831203133B0818
:1004D000ED003A08EC000A30F9000030FA006D082F
:1004E000FC006C08FB000A128A1561250A128A11A9
:1004F0007A0883120313EB007908EA006B08A50061
:100500006A08A4000A30A6000030A700C7300A120B
:100510008A15D7230A128A110A30F9000030FA002E
:100520000A30F0000030F100831203136D08F3006D
:100530006C08F2000A128A15BC250A128A11710889
:10054000FC007008FB000A128A1561250A128A1144
:100550007A0883120313E9007908E8006908A50006
:100560006808A4000A30A6000030A700C2300A12B2
:100570008A15D7230A128A110A30F9000030FA00CE
:100580006430F0000030F100831203136D08F300B3
:100590006C08F2000A128A15BC250A128A11710829
:1005A000FC007008FB000A128A1561250A128A11E4
:1005B0007A0883120313E7007908E6006708A500AC
:1005C0006608A4000A30A6000030A700BD300A1259
:1005D0008A15D7230A128A11C730F0000030F100C3
:1005E000C2300A128A1573240A128A11103083123B
:1005F0000313D4005408F000B8300A128A15B62349
:100600000A128A11C230F0000030F100B8300A122C
:100610008A1573240A128A11B830F0000030F100F4
:10062000BD300A128A1573240A128A11C730831248
:100630000313D400D40B1A2B831203131F159F1519
:100640001F129F121F149F140C131E08D40054086D
:10065000EE004330BD007F30BC000030BB000030F6
:10066000BA004030A300A030A2000030A10000304A
:10067000A0006E08D400D501D601D7015708F300B9
:100680005608F2005508F1005408F00001300A1233
:100690008A1114210A128A11730883120313A70006
:1006A0007208A6007108A5007008A4000A128A1139
:1006B0008A240A128A11831203132308C100220814
:1006C000C0002108BF002008BE000A128A15232698
:1006D0000A128A11831203133D0883160313A30021
:1006E000831203133C0883160313A200831203131F
:1006F0003B0883160313A100831203133A088316E1
:100700000313A000230883120313A7008316031307
:10071000220883120313A6008316031321088312F1
:100720000313A50083160313200883120313A400E8
:100730004230A300C830A2000030A1000030A00069
:100740000A128A118A240A128A11831203132308B7
:10075000BD002208BC002108BB002008BA000A1214
:100760008A1198200A128A11831203133B08E500AC
:100770003A08E4000A30F9000030FA006508FC008D
:100780006408FB000A128A1561250A128A117A0888
:1007900083120313E3007908E2006308A5006208EE
:1007A000A4000A30A6000030A700B3300A128A1550
:1007B000D7230A128A110A30F9000030FA000A30F1
:1007C000F0000030F100831203136508F3006408A1
:1007D000F2000A128A15BC250A128A117108FC005F
:1007E0007008FB000A128A1561250A128A117A081C
:1007F00083120313E1007908E0006108A500600896
:10080000A4000A30A6000030A700AE300A128A15F4
:10081000D7230A128A110A30F9000030FA00643036
:10082000F0000030F100831203136508F300640840
:10083000F2000A128A15BC250A128A117108FC00FE
:100840007008FB000A128A1561250A128A117A08BB
:1008500083120313DF007908DE005F08A5005E083D
:10086000A4000A30A6000030A700A9300A128A1599
:10087000D7230A128A11B330F0000030F100AE30F5
:100880000A128A1573240A128A1110308312031374
:10089000D4005408F000A4300A128A15B6230A12B4
:1008A0008A11AE30F0000030F100A4300A128A152F
:1008B00073240A128A11A430F0000030F100A9302C
:1008C0000A128A1573240A128A111230F00080303D
:1008D000F100A9300A128A1573240A128A11A9306C
:1008E000F0000030F100BD300A128A1573240A129C
:1008F0008A11C0300A128A1573230A128A11BD3078
:10090000F3000030F4000A128A15FD230A128A113E
:10091000E12908008312031323088039A80028085E
:10092000AD002308A8002807A9002908B300A21FCA
:100930009A2C9B2C9C2C331433080319A02CA12C2B
:10094000B02C330A031DA52CA62CAE2C0030A3001E
:100950000030A2000030A1000030A000A217B82C87
:100960000030A3000030A2000030A1000030A00041
:1009700027088039A8002808AD062708A8002807FE
:10098000A9002908B200A61FC62CC72CC82C3214F7
:1009900032080319CC2CCD2CDC2C320A031DD12CAF
:1009A000D22CDA2C0030A7000030A6000030A500C1
:1009B0000030A400A617E42C0030A7000030A600E9
:1009C0000030A5000030A40032080319E82CE92CFF
:1009D000EE2C3308031DED2CEE2CF72C0030A30079
:1009E0000030A2000030A1000030A000EA2F200853
:1009F000A8002808F00026080A128A1523240A12E3
:100A00008A11710883120313B9007008B8003808FE
:100A1000A800A901AA01AB012B08B1002A08B00067
:100A20002908AF002808AE003908A800A901AA01CA
:100A3000AB012B08B7002A08B6002908B500280822
:100A4000B4002108A8002808F00025080A128A1519
:100A500023240A128A11710883120313B900700843
:100A6000B8003808A800A901AA01AB012808AE0700
:100A7000290803110318013E03193F2DAF072A0867
:100A800003110318013E0319462DB0072B0803116B
:100A90000318013E03194D2DB1073908A800A9011B
:100AA000AA01AB012808B407290803110318013E65
:100AB00003195B2DB5072A0803110318013E03191A
:100AC000622DB6072B0803110318013E0319692D87
:100AD000B7072208A8002808F00024080A128A157F
:100AE00023240A128A11710883120313B9007008B3
:100AF000B8003808A800A901AA01AB012808AE0770
:100B0000290803110318013E0319872DAF072A088E
:100B100003110318013E03198E2DB0072B08031192
:100B20000318013E0319952DB1073908A800A90142
:100B3000AA01AB012808B407290803110318013ED4
:100B40000319A32DB5072A0803110318013E031941
:100B5000AA2DB6072B0803110318013E0319B12D66
:100B6000B7070830A8000310AE0DAF0DB00DB10DE2
:100B7000A80BB32D2108A8002808F00024080A12A9
:100B80008A1523240A128A11710883120313B900EB
:100B90007008B8003808A8003908A900AA01AB01FC
:100BA0002808AE07290803110318013E0319D92D9F
:100BB000AF072A0803110318013E0319E02DB007FF
:100BC0002B0803110318013E0319E72DB107200874
:100BD000A8002808F00025080A128A1523240A1202
:100BE0008A11710883120313B9007008B80038081D
:100BF000A8003908A900AA01AB012808AE072908F6
:100C000003110318013E0319062EAF072A0803112A
:100C10000318013E03190D2EB0072B08031103180A
:100C2000013E0319142EB1070830A8000310AE0DC1
:100C3000AF0DB00DB10DA80B162E2008A800280886
:100C4000F00024080A128A1523240A128A11710856
:100C500083120313B9007008B8003808A8003908D7
:100C6000A900AA01AB012808AE072908031103183F
:100C7000013E03193C2EAF072A0803110318013E59
:100C80000319432EB0072B0803110318013E031963
:100C90004A2EB1072108A8002808F00026080A12E9
:100CA0008A1523240A128A11710883120313B900CA
:100CB0007008B8003808A8003908A900AA01AB01DB
:100CC0002808B407290803110318013E0319692EE7
:100CD000B5072A0803110318013E0319702EB60741
:100CE0002B0803110318013E0319772EB7072208BA
:100CF000A8002808F00025080A128A1523240A12E1
:100D00008A11710883120313B9007008B8003808FB
:100D1000A8003908A900AA01AB012808B4072908CE
:100D200003110318013E0319962EB5072A08031173
:100D30000318013E03199D2EB6072B080311031853
:100D4000013E0319A42EB7072208A8002808F000C6
:100D500026080A128A1523240A128A11710883129E
:100D60000313B9007008B8003808A8003908A900B2
:100D7000AA01AB0108300310A80DA90DAA0DAB0DF7
:100D8000FF3E031DBB2E2808B407290803110318D2
:100D9000013E0319CC2EB5072A0803110318013EA2
:100DA0000319D32EB6072B0803110318013E0319AC
:100DB000DA2EB7072E08A8002F08A9003008AA00CD
:100DC0003108AB0018300310AB0CAA0CA90CA80C0E
:100DD000FF3E031DE32E2808B4072908031103185A
:100DE000013E0319F42EB5072A0803110318013E2A
:100DF0000319FB2EB6072B0803110318013E031934
:100E0000022FB7070830A8000310AE0DAF0DB00DCC
:100E1000B10DA80B042F33083207A800A901A90DB2
:100E20002808823EB80029080318013EFF3EB90099
:100E3000362F0130A8000310B40DB50DB60DB70D57
:100E4000A80B1B2FB11F252F262F272F341401305D
:100E5000A8000310AE0DAF0DB00DB10DA80B292FDA
:100E6000FF30B8070318B90AFF30B907B61F392F8A
:100E70003A2F192FB201B11F3E2F3F2F5B2FFF30AA
:100E80002E05A800FF302F05A900FF303005AA006D
:100E90007F303105AB002B082A04290428040319EC
:100EA000522F532F562FB201B20A5B2F341C592FE9
:100EB0005A2F5B2F532F320803195F2F602F912F6A
:100EC0000130B407003003180130B50700300318B3
:100ED0000130B607003003180130B707371C712FF7
:100EE000722F912F3408A8003508A9003608AA00EF
:100EF0003708AB000130AC002B0DAB0CAA0CA90CD1
:100F0000A80CAC0B7C2F2B08B7002A08B6002908C8
:100F1000B5002808B4000130B8070318B90A00303A
:100F2000B9073908803AFF0080307F02031D9A2FED
:100F3000FF303802031C9D2F9E2FA92F7F30831274
:100F40000313B7008030B6000030B5000030B400A5
:100F5000DE2F831203133908803AFF0080307F02AE
:100F6000031DB42F013038020318B72FB82FC42F38
:100F7000003083120313B7000030B6000030B50014
:100F80000030B400AD01DE2F831203133808A8002F
:100F90002808B300FF30B405FF30B5057F30B60533
:100FA0000030B705331CD52FD62FD72FB6173308EF
:100FB000A8000310280CA9002908B7002D08A800D4
:100FC0002808B7043708A3003608A2003508A10096
:100FD0003408A000080083135A30840070300A12CD
:100FE0008A155C230A128A11A0308400CC300A12C0
:100FF0008A155C230A128A1183010A128A15E12CD0
:1016B80064008001840A04060319003404065D2BC3
:1016C8008312031388152730F100F530F000F00B72
:1016D8006B2BF10B6B2B8312031388110800F2009C
:1016E8000A128A154A240A128A15720883120313E9
:1016F8008600881308110A128A1564230A128A15AB
:101708000800F2000A128A154A240A128A15720879
:10171800831203138600881708110A128A15642396
:101728000A128A15080038300A128A1573230A1219
:101738008A150C300A128A1573230A128A15013089
:101748000A128A1573230A128A1506300A128A1594
:1017580073230A128A1580300A128A1573230A1213
:101768008A150800F3007308F1007108F200C42B11
:101778000130F1007108F2070130F1007108F0073B
:10178800700884000A128A110D200A128A15F100C5
:10179800720884007108831380000008031DD52B8C
:1017A800D62BBC2B080083120313A900A51FDD2B21
:1017B800DE2BEE2B2D30FD00290884007D088313D5
:1017C80080000130FD007D08A907A409A509A40A25
:1017D8000319A50A2508F9002408F8002708FB00C2
:1017E8002608FA0029080A128A1126200A128A15E0
:1017F8000800122C7408FF00730884000A128A116A
:1018080003200A128A150A128A1585230A128A15D4
:101818000130F3070318F40A0030F4077408831240
:101828000313FF00730884000A128A1103200A12A6
:101838008A15003A031D212C222CFE2B0800F800E3
:10184800F401F5017008F200F3017208F60073085C
:10185800F700781C302C312C372C7608F407031845
:10186800F50A7708F50701300310F60DF70DFF3E6E
:10187800031D382C0310F80C7808031D442C452C44
:101888002D2C7508F1007408F0000800FF30831251
:10189800031386008030F000700886058813081549
:1018A80088112730F100F530F000F00B592CF10BBE
:1018B800592C83120313881580300606031D652CE6
:1018C800662C722C88112730F100F530F000F00BEF
:1018D8006B2CF10B6B2C8312031388150800F40092
:1018E8007408F2007208F3007D2C0130F2007208CF
:1018F800F3077308840083130008031D842C852CC8
:10190800792C902C0130F2007208F3070130F007AF
:101918000318F10A0030F107710883120313FF005E
:10192800700884000A128A1103200A128A15F2002C
:10193800730884007208831380000008031DA52C17
:10194800A62C862C0800700871040319AC2CAD2C49
:10195800DC2CF501F50ABB2C01300310F00DF10D5C
:10196800FF3E031DB12C0130F4007408F507F11F88
:10197800BE2CBF2CB02C71087302031DC52C700837
:101988007202031CC82CC92CCF2C7008F2027108F3
:10199800031CF303F30201300310F10CF00CFF3EBB
:1019A800031DD02C0130F502031DDB2CDC2CBF2CD1
:1019B8007308F1007208F000080009308316031755
:1019C8008800890109308316031385008601870181
:1019D8008801890183120313850186018701880123
:1019E8008901831603130F088F3960388F008F1110
:1019F8000F118F100F140A128A1597230A128A15CD
:101A08000A128A11CE210A128A1500300A128A1582
:101A180073230A128A15823083120313D900DD302A
:101A2800D800D80B152DD90B152D092D0A128A119E
:101A38000028F501F601700871040319242D252DDD
:101A48005C2DF701F70A332D01300310F00DF10D6D
:101A5800FF3E031D292D0130F4007408F707F11F1C
:101A6800362D372D282D01300310F50DF60DFF3ECC
:101A7800031D382D71087302031D442D700872026E
:101A8800031C472D482D4F2D7008F2027108031CC6
:101A9800F303F302751401300310F10CF00CFF3E50
:101AA800031D502D0130F702031D5B2D5C2D372DD2
:101AB8007608F1007508F000080083120313A101ED
:101AC800FC1F672D682D6F2DFB09FC09FB0A031904
:101AD800FC0AA101A10AFA1F722D732D782DF909AC
:101AE800FA09F90A0319FA0A79087A0403197D2D03
:101AF8007E2DAD2DA001A00A8C2D01300310F90D0B
:101B0800FA0DFF3E031D822D0130FD007D08A00760
:101B1800FA1F8F2D902D812D7A087C02031D962D9A
:101B280079087B02031C992D9A2DA02D7908FB02B8
:101B38007A08031CFC03FC0201300310FA0CF90CB0
:101B4800FF3E031DA12D0130A002031DAC2DAD2DBC
:101B5800902D21080319B12DB22DB72DFB09FC09D1
:101B6800FB0A0319FC0A7C08FA007B08F900080044
:101B7800F601F11FC02DC12DC82DF009F109F00A99
:101B88000319F10AF601F60AF31FCB2DCC2DD52D3A
:101B9800F209F309F20A0319F30A0130F400740890
:101BA800F606F701F801700871040319DC2DDD2D24
:101BB800142EF501F50AEB2D01300310F00DF10D8F
:101BC800FF3E031DE12D0130F4007408F507F11FF5
:101BD800EE2DEF2DE02D01300310F70DF80DFF3E2F
:101BE800031DF02D71087302031DFC2D700872028D
:101BF800031CFF2D002E072E7008F2027108031C2B
:101C0800F303F302771401300310F10CF00CFF3EDC
:101C1800031D082E0130F502031D132E142EEF2D7F
:101C280076080319182E192E1E2EF709F809F70A37
:101C38000319F80A7808F1007708F0000800831201
:101C4800031341088039C2004208CB004108C20092
:101C58004207C3004308D200C01F332E342E352E4E
:101C6800521452080319392E3A2E4A2E520A031DCD
:101C78003E2E3F2E472E0030C1000030C0000030FD
:101C8800BF000030BE00C017C101522E0030C10095
:101C98000030C0000030BF000030BE003D08803971
:101CA800C2004208CB063D08C2004207C3004308F1
:101CB800D300BC1F602E612E622E531453080319E3
:101CC800662E672E772E530A031D6B2E6C2E742EEC
:101CD8000030BD000030BC000030BB000030BA004E
:101CE800BC17BD017F2E0030BD000030BC000030A5
:101CF800BB000030BA003D083C043B043A04031D15
:101D0800862E872EA02E0030C1000030C000003083
:101D1800BF000030BE008030C0047F30C1044B08D3
:101D2800C2004208C1044108BD004008BC003F0889
:101D3800BB003E08BA00FF2F5208031DA42EA52E93
:101D4800AE2E0030BD000030BC000030BB000030BB
:101D5800BA00FF2F5208C200C3014308C500530848
:101D68004202C400031CC50344087F3ECC0045085A
:101D78000318013E003ECD004108CA004008C900D2
:101D88003F08C8003E08C7000030C1000030C0004E
:101D98000030BF000030BE000030D1000030D0005D
:101DA8000030CF000030CE00D301242F5308031990
:101DB800DE2EDF2EFF2E0130C2000310C70DC80D26
:101DC800C90DCA0DC20BE12E0130C2000310BE0DB1
:101DD800BF0DC00DC10DC20BEA2ED11FF42EF52E7A
:101DE800F62E3E140130C2000310CE0DCF0DD00DDB
:101DF800D10DC20BF82E3D084A02031D0D2F3C08D9
:101E08004902031D0D2F3B084802031D0D2F3A08F8
:101E18004702031C102F112F202F51173A08C70211
:101E28003B08031C3B0FC8023C08031C3C0FC902BB
:101E38003D08031C3D0FCA020130C2004208D30707
:101E48001A305302031C292F2A2FDA2E4A08490474
:101E5800480447040319312F322F512F4E14512FA4
:101E68000130C2000310BE0DBF0DC00DC10DC20B65
:101E7800362FD11F402F412F422F3E140130C20070
:101E88000310CE0DCF0DD00DD10DC20B442FFF3056
:101E9800CC070318CD0AFF30CD07C01F542F552F8C
:101EA800342FD301D11F592F5A2F762FFF304E05CB
:101EB800C200FF304F05C300FF305005C4007F301B
:101EC8005105C500450844044304420403196D2F15
:101ED8006E2F712FD301D30A762F3E1C742F752FC6
:101EE800762F6E2F530803197A2F7B2FAC2F0130D2
:101EF800BE07003003180130BF0700300318013057
:101F0800C007003003180130C107411C8C2F8D2FEA
:101F1800AC2F3E08C2003F08C3004008C400410877
:101F2800C5000130C600450DC50CC40CC30CC20C5D
:101F3800C60B972F4508C1004408C0004308BF00DE
:101F48004208BE000130CC070318CD0A0030CD0787
:101F58004D08803AFF0080307F02031DB52FFF3007
:101F68004C02031CB82FB92FC72FFF30831203135D
:101F7800CC000030CD000030C1000030C00000307F
:101F8800BF000030BE00831203134D08803AFF00E3
:101F980080307F02031DD22F01304C020318D52F49
:101FA800D62FE32F83120313CC01CD010030C100DB
:101FB8000030C0000030BF000030BE00CB018312EB
:101FC80003134C08C2004208D200521CEC2FED2F1C
:101FD800EF2FC017F32F7F30C2004208C005520808
:101FE800C2000310420CC3004308C1004B08C200E2
:081FF8004208C104972E080005
:04400E00D4E0FFFFFC
:00000001FF
